:100000000C9460000C947F000C947F000C947F0093
:100010000C947F000C947F000C947F000C947F0064
:100020000C947F000C947F000C947F000C947F0054
:100030000C947F000C947F000C947F000C947F0044
:100040000C941B030C947F000C947F000C947F0095
:100050000C94DA040C947F000C947F000C947F00C5
:100060000C947F000C947F000C947F000C947F0014
:100070000C941B040C947F000C947F000C947F0064
:100080000C947F000C947F000C947F00303132334D
:10009000343536373839414243444546007273732C
:1000A000693D256420626174743D25642074656D2A
:1000B000703D2564206D61633D2564200D0A0000BC
:1000C00011241FBECFEFD0E4DEBFCDBF11E0A0E012
:1000D000B1E0E4E9FFE100E00BBF02C007900D9240
:1000E000A832B107D9F72CE0A8E2B1E001C01D9217
:1000F000A030B207E1F70E94550B0C94C80F0C9486
:1001000000000E9450040E94D0020895589808955B
:1001100089B18270089510927D0110922C01109285
:100120002B0108950E94B702882321F081E080937B
:100130002801089580917D01882359F08DE291E096
:100140000E949902882319F081E0809328010E947F
:100150008B0008950F931F93CF93DF930DE211E06F
:100160002EC0C0912B01D0912C010E948C04C35D44
:10017000DE4F888380912B0190912C01009741F4F0
:10018000F801208130E030932A012093290112C028
:100190002091290130912A01821793075CF081E0B8
:1001A00080937D0102C00E948C040E94860481110C
:1001B000FACF09C0019690932C0180932B010E94E5
:1001C00086048111CECFDF91CF911F910F910895B9
:1001D000CF93DF93DC01FB0181E080838183119663
:1001E0007C91119712966C91129713965C911397CC
:1001F00014964C91149715963C91159716962C9140
:10020000169717969C91179718968C91189772834A
:1002100063835483458336832783908781879091B6
:10022000F40B8091F50BD091F60BC091F70B709108
:10023000F80B6091F90B5091FA0B4091FB0B9287F0
:10024000838794878587D687C787708B618B528B0E
:10025000438B83E799E1958B848B86E1868B81E0E4
:1002600090E0908F878B118E8C91828F19964D9193
:100270005C911A9760E070E0448F558F668F778F9E
:100280001B968D919C911C97A0E0B0E080A391A358
:10029000A2A3B3A314A220E030E080E090E0019696
:1002A000DF01A20FB31F44A12C91242724A39C019A
:1002B00084329105A1F7DF91CF910895EF92FF92DB
:1002C0000F931F93CF93DF93CDB7DEB7CF58D109EC
:1002D0000FB6F894DEBF0FBECDBF0E94E2068823A2
:1002E00009F479C0189B77C08E010A581F4F780116
:1002F00085E1E80EF11C0E94E806F80181938F0168
:10030000EE15FF05C1F7BE016F5A7F4FCE018A5827
:100310009F4F0E94E8008BE28983C657DF4F888198
:10032000CA58D040853021F462968FAF629733C0AF
:10033000863089F562968FAF62972DC0ABE8B0E04A
:10034000AC0FBD1FA20FB31F2C91219301969C01EE
:100350008530910599F7FE01379620E030E080E086
:1003600090E0A1E5B0E0AC0FBD1FA20FB31F2C9130
:10037000219301969C018532910599F78FEF8CA707
:100380006CE270E0CE0101960E94AD0482E08093A1
:1003900028015F9820C081E0C557DF4F8883CB5884
:1003A000D04083E799E1C457DF4F99838883CC58C5
:1003B000D040C257DF4F1882CE58D04085E2C15797
:1003C000DF4F8883CF58D040FE01329620E030E0E6
:1003D00080E090E0B3CFC157DF4F0FB6F894DEBF97
:1003E0000FBECDBFDF91CF911F910F91FF90EF9086
:1003F00008950E94AA0080912801813049F028F0D8
:10040000823049F0833061F008950E94920008958F
:100410000E945E01089583B183E0809328010895CE
:10042000189B04C081E0809328015F9A08954DE0F5
:1004300050E0BC018EEA99E00E9413070895CF9323
:10044000DF93CDB7DEB72A970FB6F894DEBF0FBEA5
:10045000CDBF82E0898384E08A838FEF8B8363E062
:1004600070E0CE0101960E94AD042A960FB6F89472
:10047000DEBF0FBECDBFDF91CF910895CF93DF9345
:10048000CDB7DEB760970FB6F894DEBF0FBECDBF15
:1004900083E0898383E799E19B838A838091F40BCE
:1004A0009091F50B9D838C8386E18E8387E08F830B
:1004B000FE01389620E030E080E090E0A1E0B0E07E
:1004C000AC0FBD1FA20FB31F2C91219301969C016D
:1004D0008630910599F78FEF8E8768E070E0CE0146
:1004E00007960E94AD0460960FB6F894DEBF0FBE6B
:1004F000CDBFDF91CF910895FC017181628153815D
:10050000448135812681978180857093F40B6093B7
:10051000F50B5093F60B4093F70B3093F80B2093A9
:10052000F90B9093FA0B8093FB0B81E080937E0193
:100530000895FC01218120937F01233031F0243084
:1005400039F401960E947C0203C083E080937E010F
:1005500081E090917E01933009F080E0089583E07E
:1005600080937E01089583E080937E0108958091B9
:100570007E01882319F0813039F00BC00E941F02E0
:1005800082E080937E0105C00E943E0282E080935B
:100590007E0181E090917E01933009F080E0089522
:1005A000109281011092800181E8E3ECF9E0DF0113
:1005B000982F1D929A95E9F7E4E4FAE0DF011D9285
:1005C0008A95E9F708950E948604089584B58260AB
:1005D00084BD8DE787BD85B5836085BD82E080934E
:1005E0006E0008956091C50A7091C60A8091C70A8D
:1005F0009091C80A08950F931F930091C50A109116
:10060000C60A2091C70A3091C80AAB01BC01400F4D
:10061000511F621F731F8091C50A9091C60AA09155
:10062000C70AB091C80A481759076A077B0798F7A5
:100630001F910F9108951F920F920FB60F921124E0
:100640008F939F93AF93BF938091C50A9091C60AF1
:10065000A091C70AB091C80A0196A11DB11D80934F
:10066000C50A9093C60AA093C70AB093C80ABF915F
:10067000AF919F918F910F900FBE0F901F90189583
:100680008091C50A9091C60AA091C70AB091C80A84
:100690000196A11DB11D8093C50A9093C60AA0932F
:1006A000C70AB093C80A08951092C90A1092D00AD6
:1006B0001092CF0A1092CE0A1092CA0A1092CB0A58
:1006C0001092CC0A1092CD0A1092D70A1092D60A34
:1006D0001092D50A1092D10A1092D20A1092D30A1F
:1006E0001092D40A0895089508959093D90A80939A
:1006F000D80A08951092CD008CE08093CC00E9ECEC
:10070000F0E0808188688083808188618083EAEC62
:10071000F0E080818660808308951092CD002CE007
:100720002093CC00E9ECF0E0208128682083208130
:1007300028612083EAECF0E02081266020839093FA
:10074000D90A8093D80A0895409185035091860371
:100750009A012F5F3F4F317060918703709188033A
:100760006217730741F0FA01EB57FE4F8083309315
:10077000860320938503089584E092E0E5E8F1E0A4
:10078000DF019C011D9221503040E1F708958091D6
:10079000850390918703891B0895209187033091E9
:1007A000880380918503909186038217930761F0F7
:1007B000F901EB57FE4F80812F5F3F4F317030932F
:1007C00088032093870308958FEF0895E8ECF0E005
:1007D000908195FFFDCF8093CE000895CF93DF9356
:1007E000161617067CF4DC01860F971FE8ECF0E084
:1007F000CEECD0E0208125FFFDCF2D912883A817D6
:10080000B907C1F7DF91CF910895CF93DF93FC0132
:100810002081222369F0DC011196E8ECF0E0CEECB7
:10082000D0E0808185FFFDCF28832D912111F9CF64
:10083000DF91CF9108951F920F920FB60F9211245E
:100840000BB60F922F933F934F935F936F937F93CA
:100850008F939F93AF93BF93CF93EF93FF93C091E9
:10086000CE008C2F0E94A403E091D80AF091D90AFF
:10087000309711F08C2F0995FF91EF91CF91BF9197
:10088000AF919F918F917F916F915F914F913F9128
:100890002F910F900BBE0F900FBE0F901F901895C9
:1008A0001092C5008CE08093C400E1ECF0E0808100
:1008B00088688083808188618083E2ECF0E08081B9
:1008C0008660808308954091890550918A059A0138
:1008D0002F5F3F4F317060918B0570918C056217CF
:1008E000730741F0FA01E757FC4F808330938A0584
:1008F00020938905089584E092E0E9E8F3E0DF01C0
:100900009C011D9221503040E1F7089580918905A6
:1009100090918B05891B089520918B0530918C0552
:100920008091890590918A058217930761F0F901FA
:10093000E757FC4F80812F5F3F4F317030938C051C
:1009400020938B0508958FEF0895E0ECF0E09081FF
:1009500095FFFDCF8093C6000895CF93DF931616C1
:1009600017067CF4DC01860F971FE0ECF0E0C6EC84
:10097000D0E0208125FFFDCF2D912883A817B9074E
:10098000C1F7DF91CF910895CF93DF93FC012081D0
:10099000222369F0DC011196E0ECF0E0C6ECD0E037
:1009A000808185FFFDCF28832D912111F9CFDF9123
:1009B000CF9108951F920F920FB60F9211240BB68C
:1009C0000F922F933F934F935F936F937F938F93E8
:1009D0009F93AF93BF93EF93FF938091C6000E94C4
:1009E0006304FF91EF91BF91AF919F918F917F91A0
:1009F0006F915F914F913F912F910F900BBE0F9090
:100A00000FBE0F901F90189586EA95E02EE937E00B
:100A1000FC01389791838083459682179307C1F72D
:100A2000109297071092960781E995E090938E05B2
:100A300080938D051092900510928F0508957F92F6
:100A40008F929F92AF92BF92CF92DF92EF92FF92DE
:100A50000F931F93CF93DF93CDB7DEB7F8887988D4
:100A60008A889B88AC88BD88CE88DF88E88C698DB1
:100A70007A8D4B8D5C8D8F8D98A1A9A1BAA10BA108
:100A80001CA1E0918D05F0918E05309709F44BC0C3
:100A900020918F05309190052115310511F525859F
:100AA0003685F0939005E0938F0530938E05209363
:100AB0008D05718282829382A482B582C682D7829A
:100AC000E08672876187F082548743871686158691
:100AD0008787908BA18BB28B038B148B8FEF90E069
:100AE00024C0718282829382A482B582C682D78218
:100AF000E08672876187F082548743878787908B6F
:100B0000A18BB28B038B148BF0939005E0938F0530
:100B10008585968590938E0580938D0536872587EC
:100B20008FEF90E002C080E090E0DF91CF911F91C5
:100B30000F91FF90EF90DF90CF90BF90AF909F907C
:100B40008F907F9008952F923F924F925F926F9275
:100B50007F928F929F92AF92BF92CF92DF92EF924D
:100B6000FF920F931F93CF93DF93CDB7DEB79E888D
:100B70008F88788C698C5A8C4B8C3C8C2D8CA091F6
:100B80008F05B09190051196AC9011971296BC907C
:100B900012971396CC9013971496DC901497159691
:100BA000EC9015971696FC90169717960C91179740
:100BB00018961C911897292D382D472D562D652DE7
:100BC000742D832D922D0E948A0B09F45FC010971B
:100BD00009F450C0FD010584F685E02DA180B280A6
:100BE000C380D480E580F68007811085292D382DBB
:100BF000472D562D652D742D832D922D0E948A0B25
:100C000019F0309741F739C09F013097C9F1AE17FD
:100C1000BF0799F4858596859093900580938F05FD
:100C200080918D0590918E0596878587F0938E052E
:100C3000E0938D058FEF90E02DC01D968D919C91D6
:100C40001E972817390711F0DC01F7CFF9018585C8
:100C500096851E969C938E931D9780918D059091FD
:100C60008E0530938E0520938D05968785878FEFAF
:100C700090E010C080E090E00DC080E090E00AC0FD
:100C800080E090E007C080E090E004C01097D9F3C6
:100C9000FD01C0CFDF91CF911F910F91FF90EF9099
:100CA000DF90CF90BF90AF909F908F907F906F908C
:100CB0005F904F903F902F9008956F927F928F9208
:100CC0009F92AF92BF92CF92DF92EF92FF920F93DB
:100CD0001F93CF93DF93A22FB32FC42FD52F962E20
:100CE000872E782E692EE0918F05F0919005218155
:100CF0003281438154816581768187819085AA2ED6
:100D0000BB2ECC2EDD2EE92CF82C072D162D0E94A3
:100D10008A0BD1F03097C1F00584F685E02D218152
:100D20003281438154816581768187819085AA2EA5
:100D3000BB2ECC2EDD2EE92CF82C072D162D0E9473
:100D40008A0B11F0309741F7CF01DF91CF911F91BE
:100D50000F91FF90EF90DF90CF90BF90AF909F905A
:100D60008F907F906F900895009729F480918F0560
:100D7000909190050895FC01858596850895409190
:100D80009E0950919F099A012F5F3F4F31706091EA
:100D9000A0097091A1096217730741F0FA01E256A8
:100DA000F84F808330939F0920939E09089584E033
:100DB00092E0EEE9F7E0DF019C011D922150304006
:100DC000E1F7089580919E099091A009891B0895EB
:100DD0002091A0093091A10980919E0990919F09CD
:100DE0008217930761F0F901E256F84F80812F5F77
:100DF0003F4F31703093A1092093A00908958FEFE0
:100E00000895FC01158214821782168213821282C1
:100E100011861086138612860895FC017183608303
:100E20000E9401070895EF92FF920F931F93CF93B3
:100E3000DF93EC017B018A0188819981009751F051
:100E40002A853B85265F3F4F240F351F8217930766
:100E500008F450C0C80106960E94930B009709F44D
:100E60004BC02C813D81232B69F49D838C839F8310
:100E70008E8321E030E03B832A8319870887E0E0F6
:100E8000F0E012C0EE81FF81938382839F838E8383
:100E90002A813B812F5F3F4F3B832A8328853985F9
:100EA000200F311F398728872A813B81A901440FF0
:100EB000551F220F331F220F331F220F331F240F02
:100EC000351F48855985240F351F3B872A87DC014C
:100ED0001196FC93EE9313961C921E921297159600
:100EE0001C930E931497A801B70106960E94C70C95
:100EF0008FEF03C082E001C081E0DF91CF911F91AD
:100F00000F91FF90EF900895EF92FF920F931F9330
:100F1000CF93DF93EC017B010C811D81011511053D
:100F200009F453C0D80114968D919C9115970E9495
:100F3000930BF70191838083EF2809F448C0D8010F
:100F400014964D915C911597B8016A5F7F4F0E948E
:100F5000C70CD8011296ED91FC911397309749F484
:100F60001D821C821F821E821B821A82198618868D
:100F700014C0FD83EC838A819B8101979B838A83C4
:100F800088859985D80114962D913C911597821BDF
:100F9000930B99878887118210828A819B819C019B
:100FA000220F331F880F991F880F991F880F991FD1
:100FB000820F931F28853985820F931F9B878A870D
:100FC000C8010E942B0C8FEF03C083E001C081E0B9
:100FD000DF91CF911F910F91FF90EF900895CF92E5
:100FE000DF92EF92FF920F931F93CF93DF938B01CA
:100FF0007A016901FC0122813381232B29F4F60156
:101000001182108283E01BC0FC01C481D58120972E
:1010100099F0A701B801CE0106960E94BA0C811181
:1010200005C0F601D183C0838FEF09C00A80DB8140
:10103000C02D209771F702C084E001C084E0DF91E9
:10104000CF911F910F91FF90EF90DF90CF90089577
:10105000CF93DF93EC01FB018A819B81009709F418
:1010600047C0019741F4CB010E942B0CCE010E9496
:1010700001078FEF3EC0A081B181109739F08281C6
:10108000938113969C938E93129704C082819381CF
:101090009D838C83A281B381109729F080819181F7
:1010A0008D939C9304C0808191819F838E838A81DC
:1010B0009B8101979B838A8328853985448155814B
:1010C000241B350B39872887AC01440F551F880F27
:1010D000991F880F991F880F991F840F951F280F3C
:1010E000391F3B872A87CF010E942B0C8FEF01C04D
:1010F00083E0DF91CF910895DC011496ED91FC918E
:101100001597309739F084819581FB019183808315
:101110008FEF089583E008950F931F93CF93DF938C
:101120008C01FC0184819581009749F0FC01C2810A
:10113000D3810E942B0C209711F0CE01F7CFC8016C
:101140000E9401078FEFDF91CF911F910F910895BA
:101150000E940C0F08950E94140F08955D98089541
:10116000559A54980E94E0080E94AE08089589B1EB
:10117000807108950E941A090E94820A089545E12B
:1011800050E0BC0186EE9AE00E94130708959FEBA1
:10119000980F963008F4806290911701981751F0DB
:1011A000E8E1F1E091E02191281731F09F5F903163
:1011B000D1F704C080E00895892F089580E808954C
:1011C00060E070E286EE9AE00E940D0760E070E257
:1011D0008AED9AE00E940D071092A5091092A409C9
:1011E00081E8E3E7FBE0DF01982F1D929A95E9F78C
:1011F000E2EFFAE0DF011D928A95E9F708950F9377
:101200001F93CF93DF938B01FB01848B80E090E0F1
:10121000C0E0D0E0F801E80FF91F80810E94BF060E
:101220002196CE01C531D105A9F7DF91CF911F914C
:101230000F9108957F928F929F92AF92BF92CF921B
:10124000DF92EF92FF920F931F93CF93DF93CDB76F
:10125000DEB7E6970FB6F894DEBF0FBECDBF0E9493
:10126000C703882309F43AC10E94CD03882309F4F7
:1012700035C12091A4093091A509203831050CF021
:101280002DC1F901ED58F44F80832F5F3F4F30930C
:10129000A5092093A4098A3009F020C163E77BE007
:1012A00082EF9AE00E94DB0C1092A5091092A4092B
:1012B00081E8E3E7FBE0DF011D928A95E9F76AE246
:1012C00070E082EF9AE00E94D00C8C01009709F444
:1012D00005C1FE01319685E1DF011D928A95E9F78E
:1012E000F801838D0E94C708F82ED8015C968C9176
:1012F0000E94C708B0E1FB9E90011124822BF801E7
:1013000090E020E030E0419194272F5F3F4F2B3158
:101310003105C9F7891751F085E1FE013196DE01EB
:10132000569601900D928A95E1F7D2C01AAA19AA91
:10133000F80181810E94C708F82ED80112968C917D
:101340000E94C708B0E1FB9E90011124F82EF22AFA
:10135000F8AAF80183810E94C708E82ED8011496E4
:101360008C910E94C708B0E1EB9E90011124E82EF9
:10137000E22AEFA6F80185810E94C708D82ED8017D
:1013800016968C910E94C708B0E1DB9E9001112453
:10139000D82ED22ADEA6F80187810E94C708C82E5F
:1013A000D80118968C910E94C708B0E1CB9E90019D
:1013B0001124C82EC22ACDA6F80181850E94C70833
:1013C000B82ED8011A968C910E94C708B0E1BB9E36
:1013D00090011124B82EB22ABCA6F80183850E9480
:1013E000C708A82ED8011C968C910E94C708B0E1AE
:1013F000AB9E90011124A82EA22AABA6F8018685E7
:101400000E94C708882ED8011F968C910E94C70899
:10141000982EF80181890E94C708782ED80152962B
:101420008C910E94C708B0E17B9E90011124822B11
:101430008BABF80183890E94C708782ED801549697
:101440008C910E94C708B0E17B9E90011124822BF1
:101450008CABF80186890E94C708782ED801579670
:101460008C910E94C708B0E17B9E90011124822BD1
:101470008DABF801808D0E94C708782ED80159964F
:101480008C910E94C708B0E17B9E90011124822BB1
:101490008EABE0E18E9EC001112489298983AA8246
:1014A000BB82CC82DD82EE82FF82188619868DA9EE
:1014B0009EA99B878A878BA99CA99D878C8785E19C
:1014C000FE013196DE01569601900D928A95E1F764
:1014D000BE016A5E7F4F81E00E94FF08E6960FB66C
:1014E000F894DEBF0FBECDBFDF91CF911F910F915A
:1014F000FF90EF90DF90CF90BF90AF909F908F9034
:101500007F9008950F931F93CF93DF93C091A2090B
:10151000D091A3092097C1F1CE010E94B406909307
:10152000A3098093A2090E94F2020F8518892989D4
:101530003A89DC01CB01801B910BA20BB30B8031EC
:101540009742A105B10540F1BE0186E00E94FF0867
:101550008DB79EB745970FB6F8949EBF0FBE8DBF4F
:10156000ADB7BEB7119685E1FE0101900D928A9547
:10157000E1F70E94A3058DB79EB745960FB6F89484
:101580009EBF0FBE8DBF08C080E090E00E94B406F1
:101590009093A3098093A209DF91CF911F910F919E
:1015A00008950F931F93CF93DF93CDB7DEB7E297E4
:1015B0000FB6F894DEBF0FBECDBFFC018E010F5FEA
:1015C0001F4F82E3D8011D928A95E9F780858F939A
:1015D00087818F9386818F9385818F9384818F9369
:1015E00083818F9382818F9381818F9384858F9361
:1015F00083858F9382858F9381858F9380811F92BE
:101600008F938DE990E09F938F931F930F930E9488
:10161000E20CC8010E94C4040FB6F894DEBF0FBEEE
:10162000CDBFE2960FB6F894DEBF0FBECDBFDF91FF
:10163000CF911F910F9108958093AD090895CF9296
:10164000DF92EF92FF926B017C010E94F202C60EC4
:10165000D71EE81EF91EC092A909D092AA09E092ED
:10166000AB09F092AC09FF90EF90DF90CF90089516
:101670000F931F930E94F2020091A9091091AA09E9
:101680002091AB093091AC0960177107820793076D
:1016900040F068EE73E080E090E00E941F0B81E074
:1016A00001C080E01F910F910895569A579A5F9A52
:1016B00084B1817084B98CE19BE00E948D030E940B
:1016C000E6020E9454030E9404050E94B0080E9492
:1016D000810078942FEF89E698E121508040904076
:1016E000E1F700C00000C0E40E94BA080E94F901BE
:1016F0008091AD091092AD090E94380B8823A1F3A7
:1017000068EE73E080E090E00E941F0B8BB18C27A5
:101710008BB9EACF2A153B054C055D056E057F05A3
:10172000800791070895CF93DF938230910510F4DD
:1017300082E090E0E091FE0BF091FF0B20E030E0C2
:10174000A0E0B0E0309739F1408151814817590746
:10175000B8F04817590771F482819381109729F0E6
:1017600013969C938E9312972CC09093FF0B8093AB
:10177000FE0B27C02115310531F04217530718F031
:10178000A901DB0101C0EF019A01BD01DF01028067
:10179000F381E02DD7CF21153105F9F0281B390B46
:1017A0002430310580F48A819B816115710521F017
:1017B000FB019383828304C09093FF0B8093FE0B05
:1017C000FE01329644C0FE01E20FF31F8193919314
:1017D00022503109398328833AC02091FC0B309183
:1017E000FD0B232B41F42091020130910301309332
:1017F000FD0B2093FC0B209100013091010121157C
:10180000310541F42DB73EB74091040150910501D7
:10181000241B350BE091FC0BF091FD0BE217F30755
:10182000A0F42E1B3F0B2817390778F0AC014E5F50
:101830005F4F2417350748F04E0F5F1F5093FD0B85
:101840004093FC0B8193919302C0E0E0F0E0CF0164
:10185000DF91CF910895CF93DF93009709F487C06C
:10186000FC01329713821282C091FE0BD091FF0BC4
:10187000209781F420813181280F391F8091FC0B42
:101880009091FD0B8217930779F5F093FD0BE09390
:10189000FC0B6DC0DE0120E030E0AE17BF0750F456
:1018A00012964D915C9113979D014115510509F1D7
:1018B000DA01F3CFB383A28340815181840F951F56
:1018C0008A179B0771F48D919C911197840F951F36
:1018D00002969183808312968D919C9113979383A6
:1018E00082832115310529F4F093FF0BE093FE0B61
:1018F0003EC0D9011396FC93EE9312974D915D91E2
:10190000A40FB51FEA17FB0779F480819181840F3A
:10191000951F0296D90111969C938E938281938193
:1019200013969C938E931297E0E0F0E08A819B815E
:10193000009719F0FE01EC01F9CFCE010296288143
:101940003981820F931F2091FC0B3091FD0B2817DA
:10195000390769F4309729F41092FF0B1092FE0BAF
:1019600002C013821282D093FD0BC093FC0BDF9157
:10197000CF910895FB01DC0104C08D910190801985
:1019800021F441505040C8F7881B990B0895FB0182
:10199000DC0102C001900D9241505040D8F70895EB
:1019A000FC018191861721F08823D9F799270895A2
:1019B0003197CF010895FB01DC0101900D920020C9
:1019C000E1F708950F931F93CF93DF93CDB7DEB761
:1019D0002E970FB6F894DEBF0FBECDBF0D891E89BE
:1019E0008EE08C831A8309838FEF9FE79E838D831C
:1019F000AE01475E5F4F6F89788DCE0101960E94E0
:101A0000110DEF81F885E00FF11F10822E960FB6B1
:101A1000F894DEBF0FBECDBFDF91CF911F910F9124
:101A200008952F923F924F925F926F927F928F9282
:101A30009F92AF92BF92CF92DF92EF92FF920F935D
:101A40001F93CF93DF93CDB7DEB72C970FB6F894E3
:101A5000DEBF0FBECDBF7C016B018A01FC01178286
:101A60001682838181FFBDC1CE0101964C01F70131
:101A70009381F60193FD859193FF81916F018823F6
:101A800009F4ABC1853239F493FD859193FF8191BF
:101A90006F01853229F4B70190E00E94380FE7CF3B
:101AA000512C312C20E02032A0F48B3269F030F43C
:101AB000803259F0833269F420612CC08D3239F0C4
:101AC000803339F4216026C02260246023C028605E
:101AD00021C027FD27C030ED380F3A3078F426FFBB
:101AE00006C0FAE05F9E300D1124532E13C08AE029
:101AF000389E300D1124332E20620CC08E3221F41A
:101B000026FD6BC1206406C08C3611F4206802C02B
:101B1000883641F4F60193FD859193FF81916F0121
:101B20008111C1CF982F9F7D9554933028F40C5F7D
:101B30001F4FFFE3F9830DC0833631F0833771F017
:101B4000833509F05BC022C0F801808189830E5F74
:101B50001F4F44244394512C540115C03801F2E026
:101B60006F0E711CF801A080B18026FF03C0652DA7
:101B700070E002C06FEF7FEFC5012C870E942D0F30
:101B80002C0183012C852F77222E17C03801F2E01B
:101B90006F0E711CF801A080B18026FF03C0652D77
:101BA00070E002C06FEF7FEFC5012C870E94220F0B
:101BB0002C012C852068222E830123FC1BC0832D41
:101BC00090E048165906B0F4B70180E290E00E9418
:101BD000380F3A94F4CFF50127FC859127FE8191C7
:101BE0005F01B70190E00E94380F31103A94F1E0A4
:101BF0004F1A51084114510471F7E5C0843611F0B1
:101C0000893639F5F80127FF07C06081718182812B
:101C100093810C5F1F4F08C060817181882777FD19
:101C20008095982F0E5F1F4F2F76B22E97FF09C019
:101C300090958095709561957F4F8F4F9F4F20684D
:101C4000B22E2AE030E0A4010E946A0FA82EA81844
:101C500044C0853729F42F7EB22E2AE030E025C01B
:101C6000F22FF97FBF2E8F36C1F018F4883579F046
:101C7000B4C0803719F0883721F0AFC02F2F206112
:101C8000B22EB4FE0DC08B2D8460B82E09C024FF87
:101C90000AC09F2F9660B92E06C028E030E005C02C
:101CA00020E130E002C020E132E0F801B7FE07C0D9
:101CB00060817181828193810C5F1F4F06C06081BA
:101CC000718180E090E00E5F1F4FA4010E946A0FB7
:101CD000A82EA818FB2DFF77BF2EB6FE0BC02B2D0C
:101CE0002E7FA51450F4B4FE0AC0B2FC08C02B2D00
:101CF0002E7E05C07A2C2B2D03C07A2C01C0752CAA
:101D000024FF0DC0FE01EA0DF11D8081803311F426
:101D1000297E09C022FF06C07394739404C0822FE9
:101D2000867809F0739423FD13C020FF06C05A2C57
:101D3000731418F4530C5718732C731468F4B70108
:101D400080E290E02C870E94380F73942C85F5CFA9
:101D5000731410F4371801C0312C24FF12C0B701DE
:101D600080E390E02C870E94380F2C8522FF17C05B
:101D700021FF03C088E590E002C088E790E0B7014A
:101D80000CC0822F867859F021FD02C080E201C08C
:101D90008BE227FD8DE2B70190E00E94380FA51479
:101DA00038F4B70180E390E00E94380F5A94F7CFDF
:101DB000AA94F401EA0DF11D8081B70190E00E9420
:101DC000380FA110F5CF332009F451CEB70180E2CE
:101DD00090E00E94380F3A94F6CFF7018681978100
:101DE00002C08FEF9FEF2C960FB6F894DEBF0FBEA8
:101DF000CDBFDF91CF911F910F91FF90EF90DF90BA
:101E0000CF90BF90AF909F908F907F906F905F909A
:101E10004F903F902F900895F999FECF92BD81BDCC
:101E2000F89A992780B50895262FF999FECF1FBA01
:101E300092BD81BD20BD0FB6F894FA9AF99A0FBEF3
:101E400001960895FC010590615070400110D8F78B
:101E5000809590958E0F9F1F0895FC0161507040F2
:101E600001900110D8F7809590958E0F9F1F0895CF
:101E70000F931F93CF93DF93182F092FEB018B81C3
:101E800081FD03C08FEF9FEF20C082FF10C04E8105
:101E90005F812C813D81421753077CF4E881F981F1
:101EA0009F012F5F3F4F39832883108306C0E88549
:101EB000F985812F0995892B29F72E813F812F5F85
:101EC0003F4F3F832E83812F902FDF91CF911F9122
:101ED0000F910895FA01AA27283051F1203181F19C
:101EE000E8946F936E7F6E5F7F4F8F4F9F4FAF4F22
:101EF000B1E03ED0B4E03CD0670F781F891F9A1F35
:101F0000A11D680F791F8A1F911DA11D6A0F711DE8
:101F1000811D911DA11D20D009F468943F912AE0F4
:101F2000269F11243019305D3193DEF6CF010895DC
:101F3000462F4770405D4193B3E00FD0C9F7F6CF0D
:101F4000462F4F70405D4A3318F0495D31FD4052D5
:101F5000419302D0A9F7EACFB4E0A695979587956B
:101F600077956795BA95C9F700976105710508954A
:101F70009B01AC010A2E06945795479537952795F6
:101F8000BA95C9F7620F731F841F951FA01D08958E
:041F9000F894FFCFF3
:101F94000000000C20003031323334353637383904
:101FA4006162636465660030313233343536373804
:081FB400396162636465660097
:00000001FF
