:100000000C9476000C9495000C9495000C9495003B
:100010000C9495000C9495000C9495000C9495000C
:100020000C9495000C9495000C9495000C949500FC
:100030000C9495000C9495000C9495000C949500EC
:100040000C94EE010C9495000C9495000C94950082
:100050000C94AB040C9495000C9495000C949500B2
:100060000C9495000C9495000C9495000C949500BC
:100070000C94FE030C9495000C9495000C94950040
:100080000C9495000C9495000C94950048454C4CAC
:100090004F20574F524C440D0A00256C75200030FC
:1000A00031323334353637383941424344454600DE
:1000B00064656275673A2000303132333435363743
:1000C000383941424344454600727373693D2564A3
:1000D00020626174743D25642074656D703D2564F3
:1000E000206D61633D2564200D0A000011241FBEB0
:1000F000CFEFD0E4DEBFCDBF11E0A0E0B1E0EAEA8F
:10010000F0E200E00BBF02C007900D92A832B107E9
:10011000D9F729E0A8E2B1E001C01D92A236B207EA
:10012000E1F70E94340B0C9453100C9400000E94D1
:1001300033040C94A6015898089589B182700895EB
:10014000CF93DF930E946904882371F1C0912B0142
:10015000D0912C010E946F04C35DDE4F8883809193
:100160002B0190912C01009741F420912D0130E05A
:1001700030932A012093290111C020912901309147
:100180002A018217930754F081E080937D010E9439
:100190006904882349F00E946F04F9CF0196909377
:1001A0002C0180932B01CECFDF91CF9108958091C8
:1001B0002801811104C00E949101809328010E94AE
:1001C000A00080917D01882361F08DE291E00E9482
:1001D00078018093280110927D0110922C011092D9
:1001E0002B018091140790911507892B51F0609194
:1001F0001607709117076A5F7F4F82E197E00C94B2
:100200009B0708954DE050E0BC0182E197E00C941B
:100210006D06CF93DF93CDB7DEB72A970FB6F8946C
:10022000DEBF0FBECDBF82E0898384E08A838FEF7B
:100230008B8363E070E0CE0101960E948F042A96C2
:100240000FB6F894DEBF0FBECDBFDF91CF910895FA
:10025000CF93DF93CDB7DEB760970FB6F894DEBFCC
:100260000FBECDBF33E03B8723E72C8789E18D8725
:1002700090915009809151099E878F8786E1888BE4
:1002800047E049833A832B8329E12C839D839F8513
:100290009E838F838FEF888768E070E0CE010196A0
:1002A0000E948F0460960FB6F894DEBF0FBECDBFDC
:1002B000DF91CF910895FC01818180935009828163
:1002C00080935109838180935209848180935309DB
:1002D0008581809354098681809355098781809315
:1002E000560980858093570981E080937E010895A7
:1002F000FC01218120937F01233031F0243031F43F
:1003000001960E945B0102C020937E0181E09091E2
:100310007E01933009F080E0089583E080937E01B0
:10032000089580917E01882329F0813041F40E9454
:10033000280102C00E94090182E080937E0181E0D1
:1003400090917E01933009F080E008951092810130
:100350001092800181E8E7E2F7E0DF01982F1D921B
:100360009A95E9F7E8EAF7E0DF011D928A95E9F747
:1003700008950C94690484B5826084BD8DE787BDBF
:1003800085B5836085BD82E080936E00089560919D
:10039000290870912A0880912B0890912C080895C3
:1003A0000F931F930091290810912A0820912B0880
:1003B00030912C08600F711F821F931F0091290834
:1003C00010912A0820912B0830912C086017710792
:1003D0008207930798F71F910F9108951F920F922C
:1003E0000FB60F9211248F939F93AF93BF93809179
:1003F000290890912A08A0912B08B0912C08019609
:10040000A11DB11D8093290890932A08A0932B0861
:10041000B0932C08BF91AF919F918F910F900FBE19
:100420000F901F9018958091290890912A08A0910B
:100430002B08B0912C080196A11DB11D80932908AD
:1004400090932A08A0932B08B0932C08089510923B
:100450002D0810923408109233081092320810922E
:100460002E0810922F081092300810923108109226
:100470003B0810923A0810923908109235081092F1
:100480003608109237081092380808950895089594
:100490001092C50023E32093C400E1ECF0E020813A
:1004A00020682083208128612083E2ECF0E0208115
:1004B0002660208390933F0880933E0860E070E0C0
:1004C00080EB92E00C94CC0C1F920F920FB60F921F
:1004D00011240BB60F922F933F934F935F936F931B
:1004E0007F938F939F93AF93BF93EF93FF938091ED
:1004F000C600E0913E08F0913F08309709F0099559
:10050000FF91EF91BF91AF919F918F917F916F91EB
:100510005F914F913F912F910F900BBE0F900FBEA7
:100520000F901F90189590933F0880933E08089570
:1005300090933D0880933C080895FC0181918823A5
:1005400039F09091C00095FFFCCF8093C600F6CFA4
:1005500008959091C00095FFFCCF8093C600089548
:10056000CF93C82F0E94A902E0913C08F0913D086A
:10057000309711F08C2F099580E090E0CF9108958D
:10058000E82FE295EF70F0E0E156FF4FE491909193
:10059000C00095FFFCCFE093C6008F70E82FF0E01D
:1005A000E156FF4FE4918091C00085FFFCCFE093BE
:1005B000C6000895EF92FF920F931F93CF93DF939E
:1005C0008C017B01EC01CE01801B910B8E159F05E8
:1005D0003CF489910E94C00280E20E94A902F3CFFC
:1005E0008DE00E94A9028AE0DF91CF911F910F91C7
:1005F000FF90EF900C94A9020F931F93CF93DF937A
:10060000CDB7DEB70F81188501151105D9F080919E
:10061000290890912A08A0912B08B0912C08BF932B
:10062000AF939F938F938AE990E09F938F930E945B
:10063000170D1F930F930E94170D0FB6F894DEBF8E
:100640000FBECDBFAE01455F5F4F69857A85809152
:100650005E0990915F090E946A0DDF91CF911F9111
:100660000F9108958CE890E09F938F9380EB90E03A
:100670009F938F930E94FC020F900F900F900F900A
:1006800093E48091C00085FD03C09093C600F9CF2C
:100690002FEF84E39CE0215080409040E1F700C0C0
:1006A000000080E58093C6002FEF84E39CE021509A
:1006B00080409040E1F700C0000088E48093C600CD
:1006C0002FEF84E39CE0215080409040E1F700C090
:1006D0000000089590934108809340080895109277
:1006E000CD008CE08093CC00E9ECF0E0808188685C
:1006F0008083808188618083EAECF0E0808186607D
:10070000808308951092CD002CE02093CC00E9EC7A
:10071000F0E0208128682083208128612083EAEC92
:10072000F0E0208126602083909341088093400868
:10073000089540918503509186039A012F5F3F4FA2
:10074000317060918703709188032617370741F055
:10075000FA01EB57FE4F8083309386032093850385
:10076000089584E092E0E5E8F1E0DF019C011D924C
:1007700021503040E1F708958091850390918703DF
:10078000891B089520918703309188038091850308
:10079000909186038217930761F0F901EB57FE4FA2
:1007A00080812F5F3F4F3170309388032093870300
:1007B00008958FEF08959091C80095FFFCCF809326
:1007C000CE000895FC019F01281B390B261737071F
:1007D00044F42091C80025FFFCCF21912093CE0046
:1007E000F2CF0895FC018191882339F09091C800DF
:1007F00095FFFCCF8093CE00F6CF08951F920F9205
:100800000FB60F9211240BB60F922F933F934F9375
:100810005F936F937F938F939F93AF93BF93CF9388
:10082000EF93FF93C091CE008C2F0E949903E0912B
:100830004008F0914108309711F08C2F0995FF91F5
:10084000EF91CF91BF91AF919F918F917F916F91D8
:100850005F914F913F912F910F900BBE0F900FBE64
:100860000F901F9018951092C5008CE08093C400E3
:10087000E1ECF0E0808188688083808188618083FA
:10088000E2ECF0E0808186608083089540918905E4
:1008900050918A059A012F5F3F4F317060918B050F
:1008A00070918C052617370741F0FA01E757FC4F86
:1008B000808330938A0520938905089584E092E02F
:1008C000E9E8F3E0DF019C011D9221503040E1F79F
:1008D00008958091890590918B05891B0895209139
:1008E0008B0530918C058091890590918A0582173E
:1008F000930761F0F901E757FC4F80812F5F3F4F6D
:10090000317030938C0520938B0508958FEF0895F7
:100910009091C00095FFFCCF8093C6000895FC0124
:100920009F01281B390B2617370744F42091C0007C
:1009300025FFFCCF21912093C600F2CF0895FC0142
:100940008191882339F09091C00095FFFCCF80936E
:10095000C600F6CF08951F920F920FB60F92112482
:100960000BB60F922F933F934F935F936F937F93A9
:100970008F939F93AF93BF93EF93FF938091C600A4
:100980000E944604FF91EF91BF91AF919F918F918B
:100990007F916F915F914F913F912F910F900BBE7F
:1009A0000F900FBE0F901F901895EEE9F5E0CF0164
:1009B0000296918380833F9687E0E630F807B9F787
:1009C000109207071092060781E995E090938E0533
:1009D00080938D051092900510928F0508956F9267
:1009E0007F928F929F92AF92BF92CF92DF92EF92BF
:1009F000FF920F931F93CF93DF93CDB7DEB72F975F
:100A00000FB6F894DEBF0FBECDBFA982BA82CB82EB
:100A1000DC82ED82FE820F83188729873A874B8715
:100A20005C876D877E878F87AA85BB856C857D8572
:100A3000E0918D05F0918E053097D1F180918F0571
:100A400090919005458556850097C1F4F0939005E7
:100A5000E0938F0550938E0540938D05B182C2823D
:100A6000D382E482F582068317832087B287A18729
:100A7000A082748763871686158617C0B182C282EA
:100A8000D382E482F582068317832087B287A18709
:100A9000A08274876387F0939005E0938F0550934D
:100AA0008E0540938D05968785878FEF90E002C075
:100AB00080E090E02F960FB6F894DEBF0FBECDBF5A
:100AC000DF91CF911F910F91FF90EF90DF90CF902A
:100AD000BF90AF909F908F907F906F9008952F92CE
:100AE0003F924F925F926F927F928F929F92AF92BE
:100AF000BF92CF92DF92EF92FF920F931F93CF930B
:100B0000DF93CDB7DEB72F970FB6F894DEBF0FBED9
:100B1000CDBFA9829B2CBA828C2CCB827D2CDC820F
:100B20006E2CED825F2CFE82402E0F83312E1887B3
:100B3000222E29873A874B875C876D877E878F8730
:100B4000A0918F05B0919005FD01218132814381F3
:100B500054816581768187819085A92CB82CC72C1A
:100B6000D62CE52CF42C032D122D0E94680B31F0AD
:100B70003097B1F10584F685E02DE7CF309781F10C
:100B8000EA17FB0789F485859685909390058093F5
:100B90008F0580918D0590918E0596878587F093BE
:100BA0008E05E0938D0519C01D968D919C911E9721
:100BB0008E179F0711F0DC01F7CF858596851E966D
:100BC0009C938E931D9780918D0590918E05F09347
:100BD0008E05E0938D05968785878FEF90E002C0A4
:100BE00080E090E02F960FB6F894DEBF0FBECDBF29
:100BF000DF91CF911F910F91FF90EF90DF90CF90F9
:100C0000BF90AF909F908F907F906F905F904F902C
:100C10003F902F9008956F927F928F929F92AF9204
:100C2000BF92CF92DF92EF92FF920F931F93CF93D9
:100C3000DF93D901EA01962E872E782E692EE09156
:100C40008F05F09190052181328143815481658126
:100C50007681878190855D016E01E92CF82C072D46
:100C6000162D0E94680B31F0309721F00584F6852F
:100C7000E02DE9CFCF01DF91CF911F910F91FF9030
:100C8000EF90DF90CF90BF90AF909F908F907F902C
:100C90006F900895FC01009729F480918F05909141
:100CA0009005089521813281438154816581768147
:100CB000878190850C940B06FC01158214821782A3
:100CC0001682138212821186108613861286089568
:100CD000FC01718360830C945C06CF92DF92EF92EB
:100CE000FF921F93CF93DF9300D000D0CDB7DEB734
:100CF0007C01DC012D913C9111972115310559F0B2
:100D00001A968D919C911B970A96840F951F281710
:100D1000390708F465C0CA0106964B835C83698372
:100D20007A830E947D0B4B815C8169817A81009777
:100D300009F458C0F70124813581232B69F4958388
:100D400084839783868321E030E033832283518735
:100D50004087E0E0F0E01EC0D7010680F781E02D7B
:100D60009383828317969C938E93169712962D9158
:100D70003C9113972F5F3F4F13963C932E931297FE
:100D800018962D913C911997240F351F19963C9375
:100D90002E931897D7011296CD90DC9013971AE0F6
:100DA0001C9D90011D9D300D11241896CD90DC9056
:100DB00019972C0D3D1D1B963C932E931A97DC0121
:100DC0001196FC93EE9313961C921E921297159611
:100DD0005C934E93149706960E94B10C8FEF03C05C
:100DE00082E001C081E00F900F900F900F90DF9193
:100DF000CF911F91FF90EF90DF90CF900895CF9209
:100E0000DF92EF92FF920F931F93CF93DF93EC014A
:100E10007B010C811D810115110509F44BC0D8011E
:100E20001496CD90DC901597C6010E947D0BF701BA
:100E300091838083EF2809F43FC0A601B8016A5F5F
:100E40007F4F0E94B10CD8011296ED91FC9113973F
:100E5000309749F41D821C821F821E821B821A82D7
:100E60001986188614C0FD83EC838A819B810197C3
:100E70009B838A8388859985D80114962D913C910E
:100E80001597821B930B99878887118210822A817C
:100E90003B814AE0429FC001439F900D1124288569
:100EA0003985820F931F9B878A87C8010E94150C82
:100EB0008FEF03C083E001C081E0DF91CF911F91EC
:100EC0000F91FF90EF90DF90CF900895CF92DF9237
:100ED000EF92FF920F931F93CF93DF937B016A01F1
:100EE0008901FC0122813381232B29F4F80111822D
:100EF000108283E017C0FC01C481D581209789F05E
:100F0000A601B701CE0106960E94A40C811105C06E
:100F1000F801D183C0838FEF05C00A80DB81C02D2B
:100F2000EDCF84E0DF91CF911F910F91FF90EF9073
:100F3000DF90CF900895CF93DF93EC01CB012A810E
:100F40003B812115310509F442C02130310531F4CE
:100F50000E94150CCE010E945C0637C0DB01ED91AA
:100F6000FC91119712964D915C911397309719F05F
:100F70005383428302C05D834C83DC0112964D9102
:100F80005C9113974115510521F0DA01ED93FC9323
:100F900002C0FF83EE83B901615071097B836A83CC
:100FA00028853985FC0144815581241B350B3987FF
:100FB0002887EAE0E69FA001E79F500D1124420F29
:100FC000531F5B874A870E94150C8FEF01C083E097
:100FD000DF91CF910895DC011496ED91FC91159766
:100FE000309739F084819581FB01918380838FEF65
:100FF000089583E008950F931F93CF93DF93EC013F
:10100000EC81FD81309739F002811381CF010E947C
:10101000150CF801F7CFCE010E945C068FEFDF912F
:10102000CF911F910F9108950C94740F0C947C0F25
:101030005D980895559A54980E940E090C941808CA
:1010400089B180710895CF93DF93DC01FB0181E0CA
:101050008083818311968C911197828312968C9153
:101060001297838313968C911397848314968C9193
:101070001497858315968C911597868316968C9177
:101080001697878317968C911797808718968C915F
:10109000189781879091500980915109D0915209F8
:1010A000C0915309709154096091550950915609A6
:1010B000409157099C013287238794878587D6877B
:1010C000C787708B618B528B438B83E799E1958B3C
:1010D000848B86E1868B81E090E0908F878B118EE8
:1010E0008C91828F19964D915C911A9760E070E017
:1010F000448F558F668F778F1B968D919C911C978F
:10110000A0E0B0E080A391A3A2A3B3A3DF91CF910D
:1011100008958F929F92AF92BF92CF92DF92EF92FB
:10112000FF920F931F93CF93DF93CDB7DEB7C557D1
:10113000D1090FB6F894DEBF0FBECDBF0E942709BC
:1011400080E090E00E944A064C010097D1F1BE0178
:101150006F5A7F4F0E9423088BE2898381E08A8344
:1011600083E78B8389E18C831D8285E28E83FE0178
:10117000EF5AFF4FDE011796CF018596E817F90762
:1011800019F021912D93FACF8FEF8CA76CE270E0CC
:10119000CE0101960E948F048BB180588BB9F40167
:1011A000A080B180C280D380E480F5800681178161
:1011B00020853185428553856485758586850E94A5
:1011C0006F05CB58DF4F0FB6F894DEBF0FBECDBF13
:1011D000DF91CF911F910F91FF90EF90DF90CF9013
:1011E000BF90AF909F908F9008954FE050E0BC016A
:1011F00082E498E00C946D069FEB980F963008F40B
:101200008062E7E1F1E090E02191281729F09F5FEB
:101210009031D1F780E80895892F089560E070E259
:1012200082E498E00E94680610920907109208076D
:1012300081E8EFECF8E0DF01982F1D929A95E9F72D
:10124000EEE4F8E0DF011D928A95E9F708955F92D8
:101250006F927F928F929F92AF92BF92CF92DF92C6
:10126000EF92FF920F931F93CF93DF93CDB7DEB72B
:10127000AA970FB6F894DEBF0FBECDBF0E94BC0385
:10128000882309F457C10E94C203882309F452C17C
:101290002091080730910907203831050CF04AC128
:1012A000F901E153F74F80832F5F3F4F30930907D8
:1012B000209308078A3009F03DC16FEC78E08EE496
:1012C00098E00E94C50C109209071092080781E867
:1012D000EFECF8E0DF011D928A95E9F76AE270E031
:1012E0008EE498E00E94BA0C5C01009709F422C1D8
:1012F000FE0131964F018FE0DF011D928A95E9F7DB
:10130000F501838D0E94FC08182FD5015C968C9105
:101310000E94FC08F50190E020E030E04191942724
:101320002F5F3F4F2B313105C9F7B0E11B9F900173
:101330001124282B291779F08FE0F401DE01509653
:1013400001900D928A95E1F7B12CC12CD12CE12CA2
:10135000F12C00E0D1C01EA21DA2F50181810E94E6
:10136000FC08082FD50112968C910E94FC08B0E170
:101370000B9F80011124082B0CA3F50183810E948F
:10138000FC08182FD50114968C910E94FC08B0E13E
:101390001B9FB0011124182F162B1BA3F50185816B
:1013A0000E94FC08E82ED50116968C910E94FC083C
:1013B000B0E1EB9E70011124E82AEAA2F5018781D1
:1013C0000E94FC08F82ED50118968C910E94FC080A
:1013D000B0E1FB9EA0011124F82EF42AF9A2F50138
:1013E00081850E94FC08C82ED5011A968C910E9416
:1013F000FC08B0E1CB9E60011124C82AC8A2F50107
:1014000083850E94FC08D82ED5011C968C910E94E1
:10141000FC08B0E1DB9E90011124D82ED22ADF8E89
:10142000F50186850E94FC08682ED5011F968C91D7
:101430000E94FC08782EF50181890E94FC08582E34
:10144000D50152968C910E94FC08B0E15B9EF001A0
:1014500011248E2B8FA3F50183890E94FC08582E3E
:10146000D50154968C910E94FC08B0E15B9EF0017E
:1014700011248E2B88A7F50186890E94FC08582E1E
:10148000D50157968C910E94FC08B0E15B9EF0015B
:1014900011248E2B89A7F501808D0E94FC08582EFF
:1014A000D50159968C910E94FC08B0E15B9EF00139
:1014B00011248E2B8AA7E0E16E9EA00111244729FA
:1014C0004983BD2CDF2CF12EBA82CB82DC82ED82E7
:1014D0001E830F8318861986E9A5FAA5FB87EA877C
:1014E000EFA1F8A5FD87EC878FE0F401DE015096AF
:1014F00001900D928A95E1F72B2D3C2D4D2D5E2DFF
:101500006F2D702F80E090E0A0E00E94710B59F0E9
:10151000A88810E020E0398D4A8D5B8D6C8D7D8D23
:101520008E8D0E94EF0481E8EEE4F8E0DF011D9269
:101530008A95E9F7AA960FB6F894DEBF0FBECDBF25
:10154000DF91CF911F910F91FF90EF90DF90CF909F
:10155000BF90AF909F908F907F906F905F90089515
:101560000F931F93CF93DF93CDB7DEB7E2970FB6FC
:10157000F894DEBF0FBECDBFFC018E010F5F1F4F81
:1015800082E3D8011D928A95E9F780858F93878140
:101590008F9386818F9385818F9384818F938381AD
:1015A0008F9382818F9381818F9384858F9383859D
:1015B0008F9382858F9381858F9380811F928F93E4
:1015C00089EC90E09F938F931F930F930E943B0DA4
:1015D000C8010E949F040FB6F894DEBF0FBECDBFB6
:1015E000E2960FB6F894DEBF0FBECDBFDF91CF916C
:1015F0001F910F910895809311070895CF92DF9264
:10160000EF92FF926B017C010E94C7016C0D7D1D62
:101610008E1D9F1D60930D0770930E0780930F071B
:1016200090931007FF90EF90DF90CF9008950F9365
:101630001F930E94C70100910D0710910E07209182
:101640000F0730911007601771078207930740F06A
:1016500068EE73E080E090E00E94FE0A81E001C045
:1016600080E01F910F910895569A579A84B1817026
:1016700084B98BEF9AE00E9482030E94BB010E9412
:1016800027020E94D5040E941A080E9497007894AD
:101690002FEF89E698E1215080409040E1F700C0AB
:1016A0000000C0E40E9489080E94D70080911107C1
:1016B000109211070E94170B8823A1F368EE73E0C4
:1016C00080E090E00E94FE0A8BB18C278BB9EACFB4
:1016D0002A153B054C055D056E057F0580079107C2
:1016E00008950024A7FD00942A17300540055005F1
:1016F00060057005800590050895CF93DF938230D3
:10170000910510F482E090E0E0915A09F0915B09B4
:1017100020E030E0A0E0B0E0309739F14081518125
:1017200048175907B8F04817590771F48281938117
:10173000109729F013969C938E9312972CC0909338
:101740005B0980935A0927C02115310531F04217F2
:10175000530718F0A901DB0101C0EF019A01BD0197
:10176000DF010280F381E02DD7CF21153105F9F09B
:10177000281B390B2430310580F48A819B81611547
:10178000710521F0FB019383828304C090935B0970
:1017900080935A09FE01329644C0FE01E20FF31F06
:1017A0008193919322503109398328833AC0209143
:1017B000580930915909232B41F4209102013091AD
:1017C0000301309359092093580920910001309169
:1017D00001012115310541F42DB73EB740910401B7
:1017E00050910501241B350BE0915809F0915909DE
:1017F000E217F307A0F42E1B3F0B2817390778F0E8
:10180000AC014E5F5F4F2417350748F04E0F5F1F46
:1018100050935909409358098193919302C0E0E095
:10182000F0E0CF01DF91CF910895CF93DF93009740
:1018300009F487C0FC01329713821282C0915A09C1
:10184000D0915B09209781F420813181280F391FC5
:1018500080915809909159098217930779F5F0936F
:101860005909E09358096DC0DE0120E030E0AE1761
:10187000BF0750F412964D915C9113979D0141154D
:10188000510509F1DA01F3CFB383A283408151817D
:10189000840F951F8A179B0771F48D919C91119766
:1018A000840F951F02969183808312968D919C914F
:1018B0001397938382832115310529F4F0935B09F3
:1018C000E0935A093EC0D9011396FC93EE93129708
:1018D0004D915D91A40FB51FEA17FB0779F4808144
:1018E0009181840F951F0296D90111969C938E9336
:1018F0008281938113969C938E931297E0E0F0E09F
:101900008A819B81009719F0FE01EC01F9CFCE018D
:10191000029628813981820F931F209158093091B6
:1019200059092817390769F4309729F410925B098F
:1019300010925A0902C013821282D0935909C0939F
:101940005809DF91CF910895FB01DC0104C08D910E
:101950000190801921F441505040C8F7881B990B21
:101960000895FB01DC0102C001900D9241505040EE
:10197000D8F70895FC018191861721F08823D9F7C3
:10198000992708953197CF010895FB01DC0101905B
:101990000D920020E1F708950F931F93CF93DF93EB
:1019A000EC018B01009731F46115710519F480E0A9
:1019B00090E038C06EE070E081E090E00E948A0F15
:1019C000FC010097A1F380E883830115110571F0F4
:1019D0001387028781E8838380915C0990915D0978
:1019E000892B21F4F0935D09E0935C092097C9F0FD
:1019F000D187C08783818260838380915E099091C3
:101A00005F09892B71F4F0935F09E0935E0980917F
:101A1000600990916109892B21F4F0936109E093A9
:101A20006009CF01DF91CF911F910F9108950F931E
:101A30001F93CF93DF93CDB7DEB7FE013796619149
:101A400071910EE519E0D8018D919C91DC011396FE
:101A50002C911397286013962C93AF010E94790D57
:101A6000D801ED91FC912381277F2383DF91CF91D2
:101A70001F910F9108950F931F93CF93DF93CDB7CD
:101A8000DEB72E970FB6F894DEBF0FBECDBF0D891F
:101A90001E898EE08C831A8309838FEF9FE79E83D4
:101AA0008D83AE01475E5F4F6F89788DCE010196C1
:101AB0000E94790DEF81F885E00FF11F10822E96BC
:101AC0000FB6F894DEBF0FBECDBFDF91CF911F914F
:101AD0000F910895CF93DF93EC018B8188608B8306
:101AE000CE010E94790D2B81277F2B83DF91CF912F
:101AF00008952F923F924F925F926F927F928F92B2
:101B00009F92AF92BF92CF92DF92EF92FF920F938C
:101B10001F93CF93DF93CDB7DEB72C970FB6F89412
:101B2000DEBF0FBECDBF7C016B018A01FC011782B5
:101B30001682838181FFBDC1CE0101964C01F70160
:101B40009381F60193FD859193FF81916F01882325
:101B500009F4ABC1853239F493FD859193FF8191EE
:101B60006F01853229F4B70190E00E94C30FE7CFDF
:101B7000512C312C20E02032A0F48B3269F030F46B
:101B8000803259F0833269F420612CC08D3239F0F3
:101B9000803339F4216026C02260246023C028608D
:101BA00021C027FD27C030ED380F3A3078F426FFEA
:101BB00006C0FAE05F9E300D1124532E13C08AE058
:101BC000389E300D1124332E20620CC08E3221F449
:101BD00026FD6BC1206406C08C3611F4206802C05B
:101BE000883641F4F60193FD859193FF81916F0151
:101BF0008111C1CF982F9F7D9554933028F40C5FAD
:101C00001F4FFFE3F9830DC0833631F0833771F046
:101C1000833509F05BC022C0F801808189830E5FA3
:101C20001F4F44244394512C540115C03801F2E055
:101C30006F0E711CF801A080B18026FF03C0652DD6
:101C400070E002C06FEF7FEFC5012C870E94B80FD4
:101C50002C0183012C852F77222E17C03801F2E04A
:101C60006F0E711CF801A080B18026FF03C0652DA6
:101C700070E002C06FEF7FEFC5012C870E94A60FB6
:101C80002C012C852068222E830123FC1BC0832D70
:101C900090E048165906B0F4B70180E290E00E9447
:101CA000C30F3A94F4CFF50127FC859127FE81916B
:101CB0005F01B70190E00E94C30F31103A94F1E048
:101CC0004F1A51084114510471F7E5C0843611F0E0
:101CD000893639F5F80127FF07C06081718182815B
:101CE00093810C5F1F4F08C060817181882777FD49
:101CF0008095982F0E5F1F4F2F76B22E97FF09C049
:101D000090958095709561957F4F8F4F9F4F20687C
:101D1000B22E2AE030E0A4010E94F50FA82EA818E8
:101D200044C0853729F42F7EB22E2AE030E025C04A
:101D3000F22FF97FBF2E8F36C1F018F4883579F075
:101D4000B4C0803719F0883721F0AFC02F2F206141
:101D5000B22EB4FE0DC08B2D8460B82E09C024FFB6
:101D60000AC09F2F9660B92E06C028E030E005C05B
:101D700020E130E002C020E132E0F801B7FE07C008
:101D800060817181828193810C5F1F4F06C06081E9
:101D9000718180E090E00E5F1F4FA4010E94F50F5B
:101DA000A82EA818FB2DFF77BF2EB6FE0BC02B2D3B
:101DB0002E7FA51450F4B4FE0AC0B2FC08C02B2D2F
:101DC0002E7E05C07A2C2B2D03C07A2C01C0752CD9
:101DD00024FF0DC0FE01EA0DF11D8081803311F456
:101DE000297E09C022FF06C07394739404C0822F19
:101DF000867809F0739423FD13C020FF06C05A2C87
:101E0000731418F4530C5718732C731468F4B70137
:101E100080E290E02C870E94C30F73942C85F5CF4D
:101E2000731410F4371801C0312C24FF12C0B7010D
:101E300080E390E02C870E94C30F2C8522FF17C0FF
:101E400021FF03C088E590E002C088E790E0B70179
:101E50000CC0822F867859F021FD02C080E201C0BB
:101E60008BE227FD8DE2B70190E00E94C30FA5141D
:101E700038F4B70180E390E00E94C30F5A94F7CF83
:101E8000AA94F401EA0DF11D8081B70190E00E944F
:101E9000C30FA110F5CF332009F451CEB70180E272
:101EA00090E00E94C30F3A94F6CFF70186819781A4
:101EB00002C08FEF9FEF2C960FB6F894DEBF0FBED7
:101EC000CDBFDF91CF911F910F91FF90EF90DF90E9
:101ED000CF90BF90AF909F908F907F906F905F90CA
:101EE0004F903F902F900895F999FECF92BD81BDFC
:101EF000F89A992780B50895262FF999FECF1FBA31
:101F000092BD81BD20BD0FB6F894FA9AF99A0FBE22
:101F1000019608950F931F93CF93DF93869F8001BF
:101F2000879F100D969F100D1124C8010E947D0BF4
:101F3000EC01009729F0A80160E070E00E94B10F69
:101F4000CE01DF91CF911F910F910895FC01059073
:101F5000615070400110D8F7809590958E0F9F1FAB
:101F60000895DC0101C06D9341505040E0F70895A1
:101F7000FC016150704001900110D8F78095909558
:101F80008E0F9F1F08950F931F93CF93DF93182FEA
:101F9000092FEB018B8181FD03C08FEF9FEF20C0E4
:101FA00082FF10C04E815F812C813D814217530713
:101FB0007CF4E881F9819F012F5F3F4F39832883AB
:101FC000108306C0E885F985812F0995892B29F7AB
:101FD0002E813F812F5F3F4F3F832E83812F902F94
:101FE000DF91CF911F910F910895FA01AA27283010
:101FF00051F1203181F1E8946F936E7F6E5F7F4FD6
:102000008F4F9F4FAF4FB1E03ED0B4E03CD0670F51
:10201000781F891F9A1FA11D680F791F8A1F911DA4
:10202000A11D6A0F711D811D911DA11D20D009F4F4
:1020300068943F912AE0269F11243019305D319336
:10204000DEF6CF010895462F4770405D4193B3E01F
:102050000FD0C9F7F6CF462F4F70405D4A3318F0C6
:10206000495D31FD4052419302D0A9F7EACFB4E077
:10207000A6959795879577956795BA95C9F700972F
:102080006105710508959B01AC010A2E06945795D0
:10209000479537952795BA95C9F7620F731F841F27
:0A20A000951FA01D0895F894FFCFCE
:1020AA00000062092000303132333435363738398E
:1020BA0061626364656600303132333435363738ED
:0820CA00396162636465660080
:00000001FF
