:100000000C9476000C9495000C9495000C9495003B
:100010000C9495000C9495000C9495000C9495000C
:100020000C9495000C9495000C9495000C949500FC
:100030000C9495000C9495000C9495000C949500EC
:100040000C94EE010C9495000C9495000C94950082
:100050000C94AB040C9495000C9495000C949500B2
:100060000C9495000C9495000C9495000C949500BC
:100070000C94FE030C9495000C9495000C94950040
:100080000C9495000C9495000C94950048454C4CAC
:100090004F20574F524C440D0A00256C75200030FC
:1000A00031323334353637383941424344454600DE
:1000B00064656275673A2000303132333435363743
:1000C000383941424344454600727373693D2564A3
:1000D00020626174743D25642074656D703D2564F3
:1000E000206D61633D2564200D0A000011241FBEB0
:1000F000CFEFD0E4DEBFCDBF11E0A0E0B1E0EAE990
:10010000F1E200E00BBF02C007900D92A832B107E8
:10011000D9F72AE0A8E2B1E001C01D92A630B207EB
:10012000E1F70E94AC0B0C94CB100C9400000E94E1
:1001300033040C94A6015898089589B182700895EB
:10014000CF93DF930E946904882371F1C0912B0142
:10015000D0912C010E946F04C35DDE4F8883809193
:100160002B0190912C01009741F420912D0130E05A
:1001700030932A012093290111C020912901309147
:100180002A018217930754F081E080937D010E9439
:100190006904882349F00E946F04F9CF0196909377
:1001A0002C0180932B01CECFDF91CF9108958091C8
:1001B0002801811104C00E949101809328010E94AE
:1001C000A00080917D01882361F08DE291E00E9482
:1001D00078018093280110927D0110922C011092D9
:1001E0002B018091AC079091AD07892B51F0609164
:1001F000AE077091AF076A5F7F4F8AEA97E00C9471
:100200007D0708954DE050E0BC018AEA97E00C9428
:100210004F06CF93DF93CDB7DEB72A970FB6F8948A
:10022000DEBF0FBECDBF82E0898384E08A838FEF7B
:100230008B8363E070E0CE0101960E948F042A96C2
:100240000FB6F894DEBF0FBECDBFDF91CF910895FA
:10025000CF93DF93CDB7DEB760970FB6F894DEBFCC
:100260000FBECDBF33E03B8723E72C8789E18D8725
:100270009091F4098091F5099E878F8786E1888B9C
:1002800047E049833A832B8329E12C839D839F8513
:100290009E838F838FEF888768E070E0CE010196A0
:1002A0000E948F0460960FB6F894DEBF0FBECDBFDC
:1002B000DF91CF910895FC0181818093F4098281BF
:1002C0008093F50983818093F60984818093F709EF
:1002D00085818093F80986818093F90987818093CD
:1002E000FA0980858093FB0981E080937E0108955F
:1002F000FC01218120937F01233031F0243031F43F
:1003000001960E945B0102C020937E0181E09091E2
:100310007E01933009F080E0089583E080937E01B0
:10032000089580917E01882329F0813041F40E9454
:10033000280102C00E94090182E080937E0181E0D1
:1003400090917E01933009F080E008951092810130
:100350001092800181E8EFEBF7E0DF01982F1D920A
:100360009A95E9F7E0E4F8E0DF011D928A95E9F754
:1003700008950C94690484B5826084BD8DE787BDBF
:1003800085B5836085BD82E080936E00089560919D
:10039000C1087091C2088091C3089091C408089563
:1003A0000F931F930091C1081091C2082091C308B8
:1003B0003091C408600F711F821F931F0091C10804
:1003C0001091C2082091C3083091C40860177107CA
:1003D0008207930798F71F910F9108951F920F922C
:1003E0000FB60F9211248F939F93AF93BF93809179
:1003F000C1089091C208A091C308B091C4080196A9
:10040000A11DB11D8093C1089093C208A093C30899
:10041000B093C408BF91AF919F918F910F900FBE81
:100420000F901F9018958091C1089091C208A091DB
:10043000C308B091C4080196A11DB11D8093C108E5
:100440009093C208A093C308B093C4080895109273
:10045000C5081092CC081092CB081092CA081092CE
:10046000C6081092C7081092C8081092C9081092C6
:10047000D3081092D2081092D1081092CD08109291
:10048000CE081092CF081092D008089508950895CC
:100490001092C50023E32093C400E1ECF0E020813A
:1004A00020682083208128612083E2ECF0E0208115
:1004B000266020839093D7088093D60860E070E090
:1004C00080EB92E00C94440D1F920F920FB60F92A6
:1004D00011240BB60F922F933F934F935F936F931B
:1004E0007F938F939F93AF93BF93EF93FF938091ED
:1004F000C600E091D608F091D708309709F0099529
:10050000FF91EF91BF91AF919F918F917F916F91EB
:100510005F914F913F912F910F900BBE0F900FBEA7
:100520000F901F9018959093D7088093D608089540
:100530009093D5088093D4080895FC018191882375
:1005400039F09091C00095FFFCCF8093C600F6CFA4
:1005500008959091C00095FFFCCF8093C600089548
:10056000CF93C82F0E94A902E091D408F091D5083A
:10057000309711F08C2F099580E090E0CF9108958D
:10058000E82FE295EF70F0E0E156FF4FE491909193
:10059000C00095FFFCCFE093C6008F70E82FF0E01D
:1005A000E156FF4FE4918091C00085FFFCCFE093BE
:1005B000C6000895EF92FF920F931F93CF93DF939E
:1005C0008C017B01EC01CE01801B910B8E159F05E8
:1005D0003CF489910E94C00280E20E94A902F3CFFC
:1005E0008DE00E94A9028AE0DF91CF911F910F91C7
:1005F000FF90EF900C94A9020F931F93CF93DF937A
:10060000CDB7DEB70F81188501151105D9F080919E
:10061000C1089091C208A091C308B091C408BF93CB
:10062000AF939F938F938AE990E09F938F930E945B
:100630008F0D1F930F930E948F0D0FB6F894DEBF9E
:100640000FBECDBFAE01455F5F4F69857A85809152
:10065000020A9091030A0E94E20DDF91CF911F914F
:100660000F9108958CE890E09F938F9380EB90E03A
:100670009F938F930E94FC020F900F900F900F900A
:1006800093E48091C00085FD03C09093C600F9CF2C
:100690002FEF84E39CE0215080409040E1F700C0C0
:1006A000000080E58093C6002FEF84E39CE021509A
:1006B00080409040E1F700C0000088E48093C600CD
:1006C0002FEF84E39CE0215080409040E1F700C090
:1006D000000008959093D9088093D8080895109247
:1006E000CD008CE08093CC00E9ECF0E0808188685C
:1006F0008083808188618083EAECF0E0808186607D
:10070000808308951092CD002CE02093CC00E9EC7A
:10071000F0E0208128682083208128612083EAEC92
:10072000F0E02081266020839093D9088093D80838
:10073000089540918503509186039A012F5F3F4FA2
:10074000317060918703709188032617370741F055
:10075000FA01EB57FE4F8083309386032093850385
:10076000089584E092E0E5E8F1E0DF019C011D924C
:1007700021503040E1F708958091850390918703DF
:10078000891B089520918703309188038091850308
:10079000909186038217930761F0F901EB57FE4FA2
:1007A00080812F5F3F4F3170309388032093870300
:1007B00008958FEF08959091C80095FFFCCF809326
:1007C000CE000895FC019F01281B390B261737071F
:1007D00044F42091C80025FFFCCF21912093CE0046
:1007E000F2CF0895FC018191882339F09091C800DF
:1007F00095FFFCCF8093CE00F6CF08951F920F9205
:100800000FB60F9211240BB60F922F933F934F9375
:100810005F936F937F938F939F93AF93BF93CF9388
:10082000EF93FF93C091CE008C2F0E949903E0912B
:10083000D808F091D908309711F08C2F0995FF91C5
:10084000EF91CF91BF91AF919F918F917F916F91D8
:100850005F914F913F912F910F900BBE0F900FBE64
:100860000F901F9018951092C5008CE08093C400E3
:10087000E1ECF0E0808188688083808188618083FA
:10088000E2ECF0E0808186608083089540918905E4
:1008900050918A059A012F5F3F4F317060918B050F
:1008A00070918C052617370741F0FA01E757FC4F86
:1008B000808330938A0520938905089584E092E02F
:1008C000E9E8F3E0DF019C011D9221503040E1F79F
:1008D00008958091890590918B05891B0895209139
:1008E0008B0530918C058091890590918A0582173E
:1008F000930761F0F901E757FC4F80812F5F3F4F6D
:10090000317030938C0520938B0508958FEF0895F7
:100910009091C00095FFFCCF8093C6000895FC0124
:100920009F01281B390B2617370744F42091C0007C
:1009300025FFFCCF21912093C600F2CF0895FC0142
:100940008191882339F09091C00095FFFCCF80936E
:10095000C600F6CF08951F920F920FB60F92112482
:100960000BB60F922F933F934F935F936F937F93A9
:100970008F939F93AF93BF93EF93FF938091C600A4
:100980000E944604FF91EF91BF91AF919F918F918B
:100990007F916F915F914F913F912F910F900BBE7F
:1009A0000F900FBE0F901F901895EEE9F5E0CF0164
:1009B000089691838083759687E0E639F807B9F742
:1009C000109297071092960781E995E090938E0513
:1009D00080938D051092900510928F0508955F9277
:1009E0006F927F928F929F92AF92BF92CF92DF923F
:1009F000EF92FF920F931F93CF93DF93CDB7DEB7A4
:100A0000DA885B886C887D888E889F88A88CB98CF2
:100A1000CA8C0B8D1C8D6D8D7E8D89A19AA1ABA189
:100A2000BCA1EDA0FEA0E0918D05F0918E05309760
:100A300009F447C020918F05309190054585568572
:100A400021153105F1F4F0939005E0938F05509353
:100A50008E0540938D0551826282738284829582D5
:100A6000A682B782C08612870187D0827487638787
:100A7000168615868787908BA18BB28BE38AF48AC2
:100A80001DC051826282738284829582A682B7825F
:100A9000C08612870187D082748763878787908B8F
:100AA000A18BB28BE38AF48AF0939005E0938F05D3
:100AB00050938E0540938D05368725878FEF90E004
:100AC00002C080E090E0DF91CF911F910F91FF90E5
:100AD000EF90DF90CF90BF90AF909F908F907F90DE
:100AE0006F905F9008952F923F924F925F926F9216
:100AF0007F928F929F92AF92BF92CF92DF92EF92AE
:100B0000FF920F931F93CF93DF93CDB7DEB7A091E2
:100B10008F05B09190059E888F88788C698C5A8C4F
:100B20004B8C3C8C2D8CFD01218132814381548181
:100B30006581768187819085A92CB82CC72CD62C0D
:100B4000E52CF42C032D122D0E94E00B31F0309790
:100B5000B1F10584F685E02DE7CF309781F1EA17F2
:100B6000FB0789F4858596859093900580938F0582
:100B700080918D0590918E0596878587F0938E05DF
:100B8000E0938D0519C01D968D919C911E978E172F
:100B90009F0711F0DC01F7CF858596851E969C9303
:100BA0008E931D9780918D0590918E05F0938E0503
:100BB000E0938D05968785878FEF90E002C080E0F7
:100BC00090E0DF91CF911F910F91FF90EF90DF9018
:100BD000CF90BF90AF909F908F907F906F905F90DD
:100BE0004F903F902F9008956F927F928F929F9297
:100BF000AF92BF92CF92DF92EF92FF920F931F932B
:100C0000CF93DF93D901EA01962E872E782E692E95
:100C1000E0918F05F09190052181328143815481CB
:100C200065817681878190855D016E01E92CF82CC4
:100C3000072D162D0E94E00B31F0309721F005842E
:100C4000F685E02DE9CFCF01DF91CF911F910F9174
:100C5000FF90EF90DF90CF90BF90AF909F908F90DC
:100C60007F906F900895009729F480918F0590915F
:100C700090050895FC01858596850895FC011582EF
:100C800014821782168213821282118610861386AE
:100C900012860895FC01718360830C943E06CF9206
:100CA000DF92EF92FF921F93CF93DF9300D000D09B
:100CB000CDB7DEB77C01DC012D913C911197211558
:100CC000310559F01A968D919C911B970A96840FC5
:100CD000951F2817390708F465C0CA0106964B838B
:100CE0005C8369837A830E94F50B4B815C81698107
:100CF0007A81009709F458C0F70124813581232BAC
:100D000069F4958384839783868321E030E033837D
:100D1000228351874087E0E0F0E01EC0D7010680C3
:100D2000F781E02D9383828317969C938E93169779
:100D300012962D913C9113972F5F3F4F13963C9342
:100D40002E93129718962D913C911997240F351FC9
:100D500019963C932E931897D7011296CD90DC905C
:100D600013971AE01C9D90011D9D300D11241896BB
:100D7000CD90DC9019972C0D3D1D1B963C932E9326
:100D80001A97DC011196FC93EE9313961C921E9217
:100D9000129715965C934E93149706960E94290D10
:100DA0008FEF03C082E001C081E00F900F900F90A1
:100DB0000F90DF91CF911F91FF90EF90DF90CF9038
:100DC0000895CF92DF92EF92FF920F931F93CF93EC
:100DD000DF93EC017B010C811D810115110509F4E4
:100DE0004BC0D8011496CD90DC901597C6010E9497
:100DF000F50BF70191838083EF2809F43FC0A6012A
:100E0000B8016A5F7F4F0E94290DD8011296ED91BB
:100E1000FC911397309749F41D821C821F821E8219
:100E20001B821A821986188614C0FD83EC838A817E
:100E30009B8101979B838A8388859985D801149625
:100E40002D913C911597821B930B9987888711826E
:100E500010822A813B814AE0429FC001439F900D4E
:100E6000112428853985820F931F9B878A87C801A3
:100E70000E948D0C8FEF03C083E001C081E0DF9101
:100E8000CF911F910F91FF90EF90DF90CF90089539
:100E9000CF92DF92EF92FF920F931F93CF93DF9346
:100EA0007B016A018901FC0122813381232B29F412
:100EB000F8011182108283E017C0FC01C481D58142
:100EC000209789F0A601B701CE0106960E941C0D5D
:100ED000811105C0F801D183C0838FEF05C00A805E
:100EE000DB81C02DEDCF84E0DF91CF911F910F9179
:100EF000FF90EF90DF90CF900895CF93DF93EC01B8
:100F0000CB012A813B812115310509F442C02130F2
:100F1000310531F40E948D0CCE010E943E0637C08F
:100F2000DB01ED91FC91119712964D915C91139715
:100F3000309719F05383428302C05D834C83DC01F8
:100F400012964D915C9113974115510521F0DA01EC
:100F5000ED93FC9302C0FF83EE83B90161507109E8
:100F60007B836A8328853985FC0144815581241B54
:100F7000350B39872887EAE0E69FA001E79F500DEF
:100F80001124420F531F5B874A870E948D0C8FEFFD
:100F900001C083E0DF91CF910895DC011496ED91BB
:100FA000FC911597309739F084819581FB019183ED
:100FB00080838FEF089583E008950F931F93CF935D
:100FC000DF93EC01EC81FD81309739F002811381D0
:100FD000CF010E948D0CF801F7CFCE010E943E0692
:100FE0008FEFDF91CF911F910F9108950C94EC0F2B
:100FF0000C94F40F5D980895559A54980E94EB084C
:101000000C94FA0789B180710895CF93DF93DC01C6
:10101000FB0181E08083818311968C9111978283FB
:1010200012968C911297838313968C9113978483D5
:1010300014968C911497858315968C9115978683B9
:1010400016968C911697878317968C9117978087A1
:1010500018968C91189781879091F4098091F509E1
:10106000D091F609C091F7097091F8096091F909DA
:101070005091FA094091FB099C013287238794879C
:101080008587D687C787708B618B528B438B83E7AD
:1010900099E1958B848B86E1868B81E090E0908F3F
:1010A000878B118E8C91828F19964D915C911A9736
:1010B00060E070E0448F558F668F778F1B968D911F
:1010C0009C911C97A0E0B0E080A391A3A2A3B3A33E
:1010D000DF91CF910895EF92FF920F931F93CF93DB
:1010E000DF93CDB7DEB7C557D1090FB6F894DEBF91
:1010F0000FBECDBF0E9412090E94DB0A189B44C09C
:10110000E090DE08F090DF088091DC089091DD0827
:10111000892BD1F187010A5F1F4FBE016F5A7F4FA4
:10112000C8010E9405088BE28983F701828D853012
:1011300011F0863019F462968FAF629781E08A834E
:1011400083E78B8389E18C831D8285E28E83FE0198
:10115000EF5AFF4FDE011796CF018596E817F90782
:1011600019F021912D93FACF8FEF8CA76CE270E0EC
:10117000CE0101960E948F048BB180588BB9B801C3
:101180008AED98E00E947D07CB58DF4F0FB6F894A8
:10119000DEBF0FBECDBFDF91CF911F910F91FF90AA
:1011A000EF90089545E150E0BC0186EE98E00C9484
:1011B0004F069FEB980F963008F48062E7E1F1E06C
:1011C00090E02191281729F09F5F9031D1F780E8B6
:1011D0000895892F089560E070E286EE98E00E94FD
:1011E0004A0660E070E28AED98E00E944A0610929A
:1011F000A1071092A00781E8E3E7F9E0DF01982F4B
:101200001D929A95E9F7E2EFF8E0DF011D928A95C9
:10121000E9F70895FB01848B45E150E08AED98E001
:101220000C944F065F926F927F928F929F92AF9233
:10123000BF92CF92DF92EF92FF920F931F93CF93C3
:10124000DF93CDB7DEB7E6970FB6F894DEBF0FBEDB
:10125000CDBF0E94BC03882309F497C10E94C2033A
:10126000882309F492C12091A0073091A10720386A
:1012700031050CF08AC1F901ED58F64F80832F5FDC
:101280003F4F3093A1072093A0078A3009F07DC11A
:1012900063E779E082EF98E00E943D0D1092A1078C
:1012A0001092A00781E8E3E7F9E0DF011D928A953B
:1012B000E9F76AE270E082EF98E00E94320D8C015B
:1012C000009709F462C1CE0101967C0185E1D70146
:1012D0001D928A95E9F7F801838D0E94D908D82ECE
:1012E000D8015C968C910E94D908F80190E020E02A
:1012F00030E0419194272F5F3F4F2B313105C9F7E3
:10130000B0E1DB9E90011124282B2913C9C01AAA31
:1013100019AAF80181810E94D908D82ED801129605
:101320008C910E94D908B0E1DB9E90011124D82E47
:10133000D22AD8AAF80183810E94D908C82ED801E0
:1013400014968C910E94D908B0E1CB9E9001112493
:10135000C82EC22ACFA6F80185810E94D908B82ECE
:10136000D80116968C910E94D908B0E1BB9E9001DD
:101370001124B82EB22ABEA6F80187810E94D9088E
:10138000A82ED80118968C910E94D908B0E1AB9E86
:1013900090011124A82EA22AADA6F80181850E94F1
:1013A000D908982ED8011A968C910E94D908B0E1DC
:1013B0009B9E90011124982E922A9CA6F801838569
:1013C0000E94D908882ED8011C968C910E94D908B9
:1013D000B0E18B9E90011124882E822A8BA6F80101
:1013E00086850E94D908682ED8011F968C910E948C
:1013F000D908782EF80181890E94D908582ED80181
:1014000052968C910E94D908B0E15B9E9001112404
:10141000822B8BABF80183890E94D908582ED80102
:1014200054968C910E94D908B0E15B9E90011124E2
:10143000822B8CABF80186890E94D908582ED801DE
:1014400057968C910E94D908B0E15B9E90011124BF
:10145000822B8DABF801808D0E94D908582ED801BF
:1014600059968C910E94D908B0E15B9E900111249D
:10147000822B8EABE0E16E9EA001112447294983A7
:101480008A829B82AC82BD82CE82DF8218861986D8
:101490008DA99EA99B878A878BA99CA99D878C87EC
:1014A00085E1F701DE01569601900D928A95E1F7EC
:1014B000DF88E88CF98C0A8D1B8DBC8DFD8DEE8D3F
:1014C0002D2D3E2D4F2D502F612F7B2F8F2F9E2F97
:1014D000A0E00E94E90B09F458C00E94F4058C01B9
:1014E000009741F50E94C7016DA37EA38FA398A723
:1014F00081E089A78DB79EB745970FB6F8949EBF38
:101500000FBE8DBFADB7BEB7119685E1FE017696D1
:1015100001900D928A95E1F70E94EF04BE016A5E88
:101520007F4F85E00E940A090FB6F894DEBF0FBE18
:10153000CDBF2BC08E89F80180838F8D98A19287B3
:10154000818789A19AA19487838783898F5F838B01
:101550000E94C701D8011F96CD90DD90ED90FC90C0
:1015600052976C197D098E099F096938734181056D
:10157000910558F0B80181E00E940A090E94C70154
:10158000F8016787708B818B928BE6960FB6F89483
:10159000DEBF0FBECDBFDF91CF911F910F91FF90A6
:1015A000EF90DF90CF90BF90AF909F908F907F9003
:1015B0006F905F9008950F931F93CF93DF93C09127
:1015C0009E07D0919F072097B1F1CE010E9433066C
:1015D00090939F0780939E070E94C7010F851889EB
:1015E00029893A89601B710B820B930B603177421A
:1015F0008105910540F1BE0186E00E940A098DB780
:101600009EB745970FB6F8949EBF0FBE8DBFADB77E
:10161000BEB7119685E1FE0101900D928A95E1F722
:101620000E9473058DB79EB745960FB6F8949EBF7E
:101630000FBE8DBF08C080E090E00E9433069093FB
:101640009F0780939E07DF91CF911F910F9108957F
:101650000F931F93CF93DF93CDB7DEB7E2970FB60B
:10166000F894DEBF0FBECDBFFC018E010F5F1F4F90
:1016700082E3D8011D928A95E9F780858F9387814F
:101680008F9386818F9385818F9384818F938381BC
:101690008F9382818F9381818F9384858F938385AC
:1016A0008F9382858F9381858F9380811F928F93F3
:1016B00089EC90E09F938F931F930F930E94B30D3B
:1016C000C8010E949F040FB6F894DEBF0FBECDBFC5
:1016D000E2960FB6F894DEBF0FBECDBFDF91CF917B
:1016E0001F910F9108958093A9070895CF92DF92DB
:1016F000EF92FF926B017C010E94C7016C0D7D1D72
:101700008E1D9F1D6093A5077093A6078093A70762
:101710009093A807FF90EF90DF90CF9008950F93DC
:101720001F930E94C7010091A5071091A607209161
:10173000A7073091A807601771078207930740F049
:1017400068EE73E080E090E00E94760B81E001C0DB
:1017500080E01F910F910895569A579A84B1817035
:1017600084B983E79BE00E9482030E94BB010E9430
:1017700027020E94D5040E94FC070E9497007894DB
:101780002FEF89E698E1215080409040E1F700C0BA
:101790000000C0E40E946B080E94D7008091A90756
:1017A0001092A9070E948F0B8823A1F368EE73E0C3
:1017B00080E090E00E94760B8BB18C278BB9EACF4A
:1017C0002A153B054C055D056E057F0580079107D1
:1017D00008950024A7FD00942A1730054005500500
:1017E00060057005800590050895CF93DF938230E2
:1017F000910510F482E090E0E091FE09F091FF097C
:1018000020E030E0A0E0B0E0309739F14081518134
:1018100048175907B8F04817590771F48281938126
:10182000109729F013969C938E9312972CC0909347
:10183000FF098093FE0927C02115310531F04217B9
:10184000530718F0A901DB0101C0EF019A01BD01A6
:10185000DF010280F381E02DD7CF21153105F9F0AA
:10186000281B390B2430310580F48A819B81611556
:10187000710521F0FB019383828304C09093FF09DB
:101880008093FE09FE01329644C0FE01E20FF31F71
:101890008193919322503109398328833AC0209152
:1018A000FC093091FD09232B41F420910201309174
:1018B00003013093FD092093FC0920910001309130
:1018C00001012115310541F42DB73EB740910401C6
:1018D00050910501241B350BE091FC09F091FD09A5
:1018E000E217F307A0F42E1B3F0B2817390778F0F7
:1018F000AC014E5F5F4F2417350748F04E0F5F1F56
:101900005093FD094093FC098193919302C0E0E05C
:10191000F0E0CF01DF91CF910895CF93DF9300974F
:1019200009F487C0FC01329713821282C091FE092C
:10193000D091FF09209781F420813181280F391F30
:101940008091FC099091FD098217930779F5F09336
:10195000FD09E093FC096DC0DE0120E030E0AE1728
:10196000BF0750F412964D915C9113979D0141155C
:10197000510509F1DA01F3CFB383A283408151818C
:10198000840F951F8A179B0771F48D919C91119775
:10199000840F951F02969183808312968D919C915E
:1019A0001397938382832115310529F4F093FF095E
:1019B000E093FE093EC0D9011396FC93EE93129773
:1019C0004D915D91A40FB51FEA17FB0779F4808153
:1019D0009181840F951F0296D90111969C938E9345
:1019E0008281938113969C938E931297E0E0F0E0AE
:1019F0008A819B81009719F0FE01EC01F9CFCE019D
:101A0000029628813981820F931F2091FC09309121
:101A1000FD092817390769F4309729F41092FF0956
:101A20001092FE0902C013821282D093FD09C09366
:101A3000FC09DF91CF910895FB01DC0104C08D9179
:101A40000190801921F441505040C8F7881B990B30
:101A50000895FB01DC0102C001900D9241505040FD
:101A6000D8F70895FC018191861721F08823D9F7D2
:101A7000992708953197CF010895FB01DC0101906A
:101A80000D920020E1F708950F931F93CF93DF93FA
:101A9000EC018B01009731F46115710519F480E0B8
:101AA00090E038C06EE070E081E090E00E940210AB
:101AB000FC010097A1F380E883830115110571F003
:101AC0001387028781E883838091000A9091010A3D
:101AD000892B21F4F093010AE093000A2097C9F0C2
:101AE000D187C0878381826083838091020A90912D
:101AF000030A892B71F4F093030AE093020A8091A0
:101B0000040A9091050A892B21F4F093050AE093C9
:101B1000040ACF01DF91CF911F910F9108950F9388
:101B20001F93CF93DF93CDB7DEB7FE013796619158
:101B3000719102E01AE0D8018D919C91DC0113961D
:101B40002C911397286013962C93AF010E94F10DEE
:101B5000D801ED91FC912381277F2383DF91CF91E1
:101B60001F910F9108950F931F93CF93DF93CDB7DC
:101B7000DEB72E970FB6F894DEBF0FBECDBF0D892E
:101B80001E898EE08C831A8309838FEF9FE79E83E3
:101B90008D83AE01475E5F4F6F89788DCE010196D0
:101BA0000E94F10DEF81F885E00FF11F10822E9653
:101BB0000FB6F894DEBF0FBECDBFDF91CF911F915E
:101BC0000F910895CF93DF93EC018B8188608B8315
:101BD000CE010E94F10D2B81277F2B83DF91CF91C6
:101BE00008952F923F924F925F926F927F928F92C1
:101BF0009F92AF92BF92CF92DF92EF92FF920F939C
:101C00001F93CF93DF93CDB7DEB72C970FB6F89421
:101C1000DEBF0FBECDBF7C016B018A01FC011782C4
:101C20001682838181FFBDC1CE0101964C01F7016F
:101C30009381F60193FD859193FF81916F01882334
:101C400009F4ABC1853239F493FD859193FF8191FD
:101C50006F01853229F4B70190E00E943B10E7CF75
:101C6000512C312C20E02032A0F48B3269F030F47A
:101C7000803259F0833269F420612CC08D3239F002
:101C8000803339F4216026C02260246023C028609C
:101C900021C027FD27C030ED380F3A3078F426FFF9
:101CA00006C0FAE05F9E300D1124532E13C08AE067
:101CB000389E300D1124332E20620CC08E3221F458
:101CC00026FD6BC1206406C08C3611F4206802C06A
:101CD000883641F4F60193FD859193FF81916F0160
:101CE0008111C1CF982F9F7D9554933028F40C5FBC
:101CF0001F4FFFE3F9830DC0833631F0833771F056
:101D0000833509F05BC022C0F801808189830E5FB2
:101D10001F4F44244394512C540115C03801F2E064
:101D20006F0E711CF801A080B18026FF03C0652DE5
:101D300070E002C06FEF7FEFC5012C870E9430106A
:101D40002C0183012C852F77222E17C03801F2E059
:101D50006F0E711CF801A080B18026FF03C0652DB5
:101D600070E002C06FEF7FEFC5012C870E941E104C
:101D70002C012C852068222E830123FC1BC0832D7F
:101D800090E048165906B0F4B70180E290E00E9456
:101D90003B103A94F4CFF50127FC859127FE819101
:101DA0005F01B70190E00E943B1031103A94F1E0DE
:101DB0004F1A51084114510471F7E5C0843611F0EF
:101DC000893639F5F80127FF07C06081718182816A
:101DD00093810C5F1F4F08C060817181882777FD58
:101DE0008095982F0E5F1F4F2F76B22E97FF09C058
:101DF00090958095709561957F4F8F4F9F4F20688C
:101E0000B22E2AE030E0A4010E946D10A82EA8187E
:101E100044C0853729F42F7EB22E2AE030E025C059
:101E2000F22FF97FBF2E8F36C1F018F4883579F084
:101E3000B4C0803719F0883721F0AFC02F2F206150
:101E4000B22EB4FE0DC08B2D8460B82E09C024FFC5
:101E50000AC09F2F9660B92E06C028E030E005C06A
:101E600020E130E002C020E132E0F801B7FE07C017
:101E700060817181828193810C5F1F4F06C06081F8
:101E8000718180E090E00E5F1F4FA4010E946D10F1
:101E9000A82EA818FB2DFF77BF2EB6FE0BC02B2D4A
:101EA0002E7FA51450F4B4FE0AC0B2FC08C02B2D3E
:101EB0002E7E05C07A2C2B2D03C07A2C01C0752CE8
:101EC00024FF0DC0FE01EA0DF11D8081803311F465
:101ED000297E09C022FF06C07394739404C0822F28
:101EE000867809F0739423FD13C020FF06C05A2C96
:101EF000731418F4530C5718732C731468F4B70147
:101F000080E290E02C870E943B1073942C85F5CFE3
:101F1000731410F4371801C0312C24FF12C0B7011C
:101F200080E390E02C870E943B102C8522FF17C095
:101F300021FF03C088E590E002C088E790E0B70188
:101F40000CC0822F867859F021FD02C080E201C0CA
:101F50008BE227FD8DE2B70190E00E943B10A514B3
:101F600038F4B70180E390E00E943B105A94F7CF19
:101F7000AA94F401EA0DF11D8081B70190E00E945E
:101F80003B10A110F5CF332009F451CEB70180E208
:101F900090E00E943B103A94F6CFF701868197813A
:101FA00002C08FEF9FEF2C960FB6F894DEBF0FBEE6
:101FB000CDBFDF91CF911F910F91FF90EF90DF90F8
:101FC000CF90BF90AF909F908F907F906F905F90D9
:101FD0004F903F902F900895F999FECF92BD81BD0B
:101FE000F89A992780B50895262FF999FECF1FBA40
:101FF00092BD81BD20BD0FB6F894FA9AF99A0FBE32
:10200000019608950F931F93CF93DF93869F8001CE
:10201000879F100D969F100D1124C8010E94F50B8B
:10202000EC01009729F0A80160E070E00E942910FF
:10203000CE01DF91CF911F910F910895FC01059082
:10204000615070400110D8F7809590958E0F9F1FBA
:102050000895DC0101C06D9341505040E0F70895B0
:10206000FC016150704001900110D8F78095909567
:102070008E0F9F1F08950F931F93CF93DF93182FF9
:10208000092FEB018B8181FD03C08FEF9FEF20C0F3
:1020900082FF10C04E815F812C813D814217530722
:1020A0007CF4E881F9819F012F5F3F4F39832883BA
:1020B000108306C0E885F985812F0995892B29F7BA
:1020C0002E813F812F5F3F4F3F832E83812F902FA3
:1020D000DF91CF911F910F910895FA01AA2728301F
:1020E00051F1203181F1E8946F936E7F6E5F7F4FE5
:1020F0008F4F9F4FAF4FB1E03ED0B4E03CD0670F61
:10210000781F891F9A1FA11D680F791F8A1F911DB3
:10211000A11D6A0F711D811D911DA11D20D009F403
:1021200068943F912AE0269F11243019305D319345
:10213000DEF6CF010895462F4770405D4193B3E02E
:102140000FD0C9F7F6CF462F4F70405D4A3318F0D5
:10215000495D31FD4052419302D0A9F7EACFB4E086
:10216000A6959795879577956795BA95C9F700973E
:102170006105710508959B01AC010A2E06945795DF
:10218000479537952795BA95C9F7620F731F841F36
:0A219000951FA01D0895F894FFCFDD
:10219A000000060A200030313233343536373839F8
:1021AA0061626364656600303132333435363738FC
:0821BA0039616263646566008F
:00000001FF
