:100000000C9476000C9495000C9495000C9495003B
:100010000C9495000C9495000C9495000C9495000C
:100020000C9495000C9495000C9495000C949500FC
:100030000C9495000C9495000C9495000C949500EC
:100040000C94F2010C9495000C9495000C9495007E
:100050000C94AF040C9495000C9495000C949500AE
:100060000C9495000C9495000C9495000C949500BC
:100070000C9402040C9495000C9495000C9495003B
:100080000C9495000C9495000C94950048454C4CAC
:100090004F20574F524C440D0A00256C75200030FC
:1000A00031323334353637383941424344454600DE
:1000B00064656275673A2000303132333435363743
:1000C000383941424344454600727373693D2564A3
:1000D00020626174743D25642074656D703D2564F3
:1000E000206D61633D2564200D0A000011241FBEB0
:1000F000CFEFD0E4DEBFCDBF11E0A0E0B1E0E4E59A
:10010000F2E200E00BBF02C007900D92A832B107E7
:10011000D9F72CE0A8E2B1E001C01D92AA30B207E5
:10012000E1F70E94090C0C9428110C9400000E9425
:1001300037040C94AA015898089589B182700895E3
:10014000CF93DF930E946D04882371F1C0912B013E
:10015000D0912C010E947304C35DDE4F888380918F
:100160002B0190912C01009741F420912D0130E05A
:1001700030932A012093290111C020912901309147
:100180002A018217930754F081E080937D010E9439
:100190006D04882349F00E947304F9CF019690936F
:1001A0002C0180932B01CECFDF91CF9108958091C8
:1001B0002801811104C00E949501809328010E94AA
:1001C000A00080917D01882361F08DE291E00E9482
:1001D00078018093280110927D0110922C011092D9
:1001E0002B018091B0099091B109892B51F0609158
:1001F000B2097091B3096A5F7F4F8EEA99E00C945F
:10020000C30708954DE050E0BC018EEA99E00C94DC
:100210009506CF93DF93CDB7DEB72A970FB6F89444
:10022000DEBF0FBECDBF82E0898384E08A838FEF7B
:100230008B8363E070E0CE0101960E9493042A96BE
:100240000FB6F894DEBF0FBECDBFDF91CF910895FA
:10025000CF93DF93CDB7DEB760970FB6F894DEBFCC
:100260000FBECDBF33E03B8723E72C8789E18D8725
:100270009091F80B8091F90B9E878F8786E1888B90
:1002800047E049833A832B8329E12C839D839F8513
:100290009E838F838FEF888768E070E0CE010196A0
:1002A0000E94930460960FB6F894DEBF0FBECDBFD8
:1002B000DF91CF910895FC0181818093F80B8281B9
:1002C0008093F90B83818093FA0B84818093FB0BDD
:1002D00085818093FC0B86818093FD0B87818093C1
:1002E000FE0B80858093FF0B81E080937E01089553
:1002F000FC01218120937F01233031F0243031F43F
:1003000001960E945B0102C020937E0181E09091E2
:100310007E01933009F080E0089583E080937E01B0
:10032000089583E080937E01089580917E01882363
:1003300029F0813041F40E94280102C00E94090185
:1003400082E080937E0181E090917E01933009F0FC
:1003500080E00895109281011092800181E8E3EC21
:10036000F9E0DF01982F1D929A95E9F7E4E4FAE0AD
:10037000DF011D928A95E9F708950C946D0484B508
:10038000826084BD8DE787BD85B5836085BD82E0D1
:1003900080936E0008956091C50A7091C60A80919D
:1003A000C70A9091C80A08950F931F930091C50A38
:1003B0001091C60A2091C70A3091C80A600F711FB8
:1003C000821F931F0091C50A1091C60A2091C70A87
:1003D0003091C80A601771078207930798F71F9139
:1003E0000F9108951F920F920FB60F9211248F93C1
:1003F0009F93AF93BF938091C50A9091C60AA09135
:10040000C70AB091C80A0196A11DB11D8093C50A03
:100410009093C60AA093C70AB093C80ABF91AF9140
:100420009F918F910F900FBE0F901F901895809104
:10043000C50A9091C60AA091C70AB091C80A019650
:10044000A11DB11D8093C50A9093C60AA093C70A47
:10045000B093C80A08951092C90A1092D00A109257
:10046000CF0A1092CE0A1092CA0A1092CB0A1092AA
:10047000CC0A1092CD0A1092D70A1092D60A109286
:10048000D50A1092D10A1092D20A1092D30A109271
:10049000D40A0895089508951092C50023E3209387
:1004A000C400E1ECF0E020812068208320812861F5
:1004B0002083E2ECF0E02081266020839093DB0A29
:1004C0008093DA0A60E070E084EB92E00C94A10D76
:1004D0001F920F920FB60F9211240BB60F922F930B
:1004E0003F934F935F936F937F938F939F93AF93BC
:1004F000BF93EF93FF938091C600E091DA0AF091E9
:10050000DB0A309709F00995FF91EF91BF91AF9108
:100510009F918F917F916F915F914F913F912F911B
:100520000F900BBE0F900FBE0F901F9018959093D9
:10053000DB0A8093DA0A08959093D90A8093D80A47
:100540000895FC018191882339F09091C00095FFB6
:10055000FCCF8093C600F6CF08959091C00095FF20
:10056000FCCF8093C6000895CF93C82F0E94AD02A0
:10057000E091D80AF091D90A309711F08C2F0995A3
:1005800080E090E0CF910895E82FE295EF70F0E0E1
:10059000E156FF4FE4919091C00095FFFCCFE093AE
:1005A000C6008F70E82FF0E0E156FF4FE491809194
:1005B000C00085FFFCCFE093C6000895EF92FF9244
:1005C0000F931F93CF93DF938C017B01EC01CE013E
:1005D000801B910B8E159F053CF489910E94C402EB
:1005E00080E20E94AD02F3CF8DE00E94AD028AE06E
:1005F000DF91CF911F910F91FF90EF900C94AD027E
:100600000F931F93CF93DF93CDB7DEB70F8118857C
:1006100001151105D9F08091C50A9091C60AA091E3
:10062000C70AB091C80ABF93AF939F938F938AE98B
:1006300090E09F938F930E94EC0D1F930F930E9465
:10064000EC0D0FB6F894DEBF0FBECDBFAE01455F17
:100650005F4F69857A858091060C9091070C0E9406
:100660003F0EDF91CF911F910F9108958CE890E09C
:100670009F938F9380EB90E09F938F930E94000352
:100680000F900F900F900F9093E48091C00085FD24
:1006900003C09093C600F9CF2FEF84E39CE0215074
:1006A00080409040E1F700C0000080E58093C600E4
:1006B0002FEF84E39CE0215080409040E1F700C0A0
:1006C000000088E48093C6002FEF84E39CE0215073
:1006D00080409040E1F700C0000008959093DD0A4B
:1006E0008093DC0A08951092CD008CE08093CC00BA
:1006F000E9ECF0E080818868808380818861808374
:10070000EAECF0E080818660808308951092CD004D
:100710002CE02093CC00E9ECF0E0208128682083D5
:10072000208128612083EAECF0E02081266020838C
:100730009093DD0A8093DC0A0895409185035091DF
:1007400086039A012F5F3F4F31706091870370914C
:1007500088032617370741F0FA01EB57FE4F8083D5
:100760003093860320938503089584E092E0E5E8C2
:10077000F1E0DF019C011D9221503040E1F7089526
:100780008091850390918703891B089520918703A9
:100790003091880380918503909186038217930797
:1007A00061F0F901EB57FE4F80812F5F3F4F3170B1
:1007B000309388032093870308958FEF08959091D5
:1007C000C80095FFFCCF8093CE000895FC019F01E7
:1007D000281B390B2617370744F42091C80025FF42
:1007E000FCCF21912093CE00F2CF0895FC0181919E
:1007F000882339F09091C80095FFFCCF8093CE00FC
:10080000F6CF08951F920F920FB60F9211240BB6D8
:100810000F922F933F934F935F936F937F938F9399
:100820009F93AF93BF93CF93EF93FF93C091CE006D
:100830008C2F0E949D03E091DC0AF091DD0A309735
:1008400011F08C2F0995FF91EF91CF91BF91AF914E
:100850009F918F917F916F915F914F913F912F91D8
:100860000F900BBE0F900FBE0F901F901895109217
:10087000C5008CE08093C400E1ECF0E080818868E2
:100880008083808188618083E2ECF0E080818660F3
:10089000808308954091890550918A059A012F5FC0
:1008A0003F4F317060918B0570918C05261737078B
:1008B00041F0FA01E757FC4F808330938A0520937B
:1008C0008905089584E092E0E9E8F3E0DF019C0106
:1008D0001D9221503040E1F7089580918905909153
:1008E0008B05891B089520918B0530918C05809193
:1008F000890590918A058217930761F0F901E757FE
:10090000FC4F80812F5F3F4F317030938C052093D7
:100910008B0508958FEF08959091C00095FFFCCF4F
:100920008093C6000895FC019F01281B390B2617F0
:10093000370744F42091C00025FFFCCF219120937C
:10094000C600F2CF0895FC018191882339F090917F
:10095000C00095FFFCCF8093C600F6CF08951F928C
:100960000F920FB60F9211240BB60F922F933F9355
:100970004F935F936F937F938F939F93AF93BF93A7
:10098000EF93FF938091C6000E944A04FF91EF917C
:10099000BF91AF919F918F917F916F915F914F9197
:1009A0003F912F910F900BBE0F900FBE0F901F9095
:1009B0001895EEE9F5E0CF0108969183808375964E
:1009C00087E0E639F807B9F7109297071092960773
:1009D00081E995E090938E0580938D0510929005A6
:1009E00010928F0508955F926F927F928F929F92DF
:1009F000AF92BF92CF92DF92EF92FF920F931F932D
:100A0000CF93DF93CDB7DEB7DA885B886C887D88BB
:100A10008E889F88A88CB98CCA8C0B8D1C8D6D8D8F
:100A20007E8D89A19AA1ABA1BCA1EDA0FEA0E09111
:100A30008D05F0918E05309709F447C020918F0500
:100A4000309190054585568521153105F1F4F093D7
:100A50009005E0938F0550938E0540938D0551824C
:100A60006282738284829582A682B782C086128750
:100A70000187D08274876387168615868787908B57
:100A8000A18BB28BE38AF48A1DC051826282738289
:100A900084829582A682B782C08612870187D0821F
:100AA000748763878787908BA18BB28BE38AF48AE4
:100AB000F0939005E0938F0550938E0540938D053C
:100AC000368725878FEF90E002C080E090E0DF91CD
:100AD000CF911F910F91FF90EF90DF90CF90BF903B
:100AE000AF909F908F907F906F905F9008952F921E
:100AF0003F924F925F926F927F928F929F92AF92AE
:100B0000BF92CF92DF92EF92FF920F931F93CF93FA
:100B1000DF93CDB7DEB7A0918F05B09190059E8889
:100B20008F88788C698C5A8C4B8C3C8C2D8CFD0179
:100B300021813281438154816581768187819085CD
:100B4000A92CB82CC72CD62CE52CF42C032D122D57
:100B50000E943D0C31F03097B1F10584F685E02D0F
:100B6000E7CF309781F1EA17FB0789F485859685F1
:100B70009093900580938F0580918D0590918E05BF
:100B800096878587F0938E05E0938D0519C01D9695
:100B90008D919C911E978E179F0711F0DC01F7CF66
:100BA000858596851E969C938E931D9780918D05C5
:100BB00090918E05F0938E05E0938D05968785873D
:100BC0008FEF90E002C080E090E0DF91CF911F9125
:100BD0000F91FF90EF90DF90CF90BF90AF909F90DC
:100BE0008F907F906F905F904F903F902F900895DF
:100BF0006F927F928F929F92AF92BF92CF92DF922D
:100C0000EF92FF920F931F93CF93DF93D901EA01E5
:100C1000962E872E782E692EE0918F05F091900503
:100C200021813281438154816581768187819085DC
:100C30005D016E01E92CF82C072D162D0E943D0C4C
:100C400031F0309721F00584F685E02DE9CFCF0112
:100C5000DF91CF911F910F91FF90EF90DF90CF9098
:100C6000BF90AF909F908F907F906F900895009766
:100C700029F480918F05909190050895FC01858558
:100C80009685089540919E0950919F099A012F5F82
:100C90003F4F31706091A0097091A1092617370765
:100CA00041F0FA01E256F84F808330939F09209378
:100CB0009E09089584E092E0EEE9F7E0DF019C01EF
:100CC0001D9221503040E1F7089580919E09909146
:100CD000A009891B08952091A0093091A109809154
:100CE0009E0990919F098217930761F0F901E256DE
:100CF000F84F80812F5F3F4F31703093A1092093CF
:100D0000A00908958FEF0895FC01158214821782BF
:100D10001682138212821186108613861286089517
:100D2000FC01718360830C948406CF92DF92EF9272
:100D3000FF921F93CF93DF9300D000D0CDB7DEB7E3
:100D40007C01DC012D913C9111972115310559F061
:100D50001A968D919C911B970A96840F951F2817C0
:100D6000390708F465C0CA0106964B835C83698322
:100D70007A830E94520C4B815C8169817A81009751
:100D800009F458C0F70124813581232B69F4958338
:100D900084839783868321E030E0338322835187E5
:100DA0004087E0E0F0E01EC0D7010680F781E02D2B
:100DB0009383828317969C938E93169712962D9108
:100DC0003C9113972F5F3F4F13963C932E931297AE
:100DD00018962D913C911997240F351F19963C9325
:100DE0002E931897D7011296CD90DC9013971AE0A6
:100DF0001C9D90011D9D300D11241896CD90DC9006
:100E000019972C0D3D1D1B963C932E931A97DC01D0
:100E10001196FC93EE9313961C921E9212971596C0
:100E20005C934E93149706960E94860D8FEF03C035
:100E300082E001C081E00F900F900F900F90DF9142
:100E4000CF911F91FF90EF90DF90CF900895CF92B8
:100E5000DF92EF92FF920F931F93CF93DF93EC01FA
:100E60007B010C811D810115110509F44BC0D801CE
:100E70001496CD90DC901597C6010E94520CF70194
:100E800091838083EF2809F43FC0A601B8016A5F0F
:100E90007F4F0E94860DD8011296ED91FC91139719
:100EA000309749F41D821C821F821E821B821A8287
:100EB0001986188614C0FD83EC838A819B81019773
:100EC0009B838A8388859985D80114962D913C91BE
:100ED0001597821B930B99878887118210822A812C
:100EE0003B814AE0429FC001439F900D1124288519
:100EF0003985820F931F9B878A87C8010E94EA0C5D
:100F00008FEF03C083E001C081E0DF91CF911F919B
:100F10000F91FF90EF90DF90CF900895CF92DF92E6
:100F2000EF92FF920F931F93CF93DF937B016A01A0
:100F30008901FC0122813381232B29F4F8011182DC
:100F4000108283E017C0FC01C481D581209789F00D
:100F5000A601B701CE0106960E94790D811105C048
:100F6000F801D183C0838FEF05C00A80DB81C02DDB
:100F7000EDCF84E0DF91CF911F910F91FF90EF9023
:100F8000DF90CF900895CF93DF93EC01CB012A81BE
:100F90003B812115310509F442C02130310531F47E
:100FA0000E94EA0CCE010E94840637C0DB01ED915D
:100FB000FC91119712964D915C911397309719F00F
:100FC0005383428302C05D834C83DC0112964D91B2
:100FD0005C9113974115510521F0DA01ED93FC93D3
:100FE00002C0FF83EE83B901615071097B836A837C
:100FF00028853985FC0144815581241B350B3987AF
:101000002887EAE0E69FA001E79F500D1124420FD8
:10101000531F5B874A870E94EA0C8FEF01C083E071
:10102000DF91CF910895DC011496ED91FC91159715
:10103000309739F084819581FB01918380838FEF14
:10104000089583E008950F931F93CF93DF93EC01EE
:10105000EC81FD81309739F002811381CF010E942C
:10106000EA0CF801F7CFCE010E9484068FEFDF91E2
:10107000CF911F910F9108950C9449100C94511029
:101080005D980895559A54980E9439090C94400827
:1010900089B180710895CF93DF93DC01FB0181E07A
:1010A0008083818311968C911197828312968C9103
:1010B0001297838313968C911397848314968C9143
:1010C0001497858315968C911597868316968C9127
:1010D0001697878317968C911797808718968C910F
:1010E000189781879091F80B8091F90BD091FA0BAA
:1010F000C091FB0B7091FC0B6091FD0B5091FE0BAE
:101100004091FF0B9C013287238794878587D68780
:10111000C787708B618B528B438B83E799E1958BEB
:10112000848B86E1868B81E090E0908F878B118E97
:101130008C91828F19964D915C911A9760E070E0C6
:10114000448F558F668F778F1B968D919C911C973E
:10115000A0E0B0E080A391A3A2A3B3A3DF91CF91BD
:101160000895CF92DF92EF92FF920F931F93CF9348
:10117000DF93CDB7DEB7CA58D1090FB6F894DEBFFA
:101180000FBECDBF0E946F090E94380B189B48C04C
:101190000E946506882309F443C08E010A581F4F38
:1011A000680185E1C80ED11C78010C151D0531F0D0
:1011B0000E946B06F80181938F01F7CFBE016F5A31
:1011C0007F4FC7010E944B088BE28983F701848916
:1011D000853011F0863019F462968FAF629782E005
:1011E0008A8383E78B8389E18C831D8285E28E83EA
:1011F000FE01EF5AFF4FDE011796CF018596E817E3
:10120000F90719F021912D93FACF8FEF8CA76CE29B
:1012100070E0CE0101960E9493048BB180588BB987
:10122000C657DF4F0FB6F894DEBF0FBECDBFDF91BC
:10123000CF911F910F91FF90EF90DF90CF90089585
:1012400045E150E0BC018AEE9AE00C9495069FEBD4
:10125000980F963008F48062E7E1F1E090E0219188
:10126000281729F09F5F9031D1F780E80895892FE2
:10127000089560E070E28AEE9AE00E94900660E0D5
:1012800070E28EED9AE00E9490061092A5091092ED
:10129000A40981E8E7E7FBE0DF01982F1D929A950A
:1012A000E9F7E6EFFAE0DF011D928A95E9F7089584
:1012B0000F931F93CF93DF93FB01848B8B01C0E0CF
:1012C000D0E0F80181918F010E9442062196C5313C
:1012D000D105B9F7DF91CF911F910F9108955F92DA
:1012E0006F927F928F929F92AF92BF92CF92DF9236
:1012F000EF92FF920F931F93CF93DF93CDB7DEB79B
:10130000E6970FB6F894DEBF0FBECDBF0E94C003B4
:10131000882309F497C10E94C603882309F492C167
:101320002091A4093091A509203831050CF08AC11B
:10133000F901E958F44F80832F5F3F4F3093A5099F
:101340002093A4098A3009F07DC167E77BE086EF2E
:101350009AE00E949A0D1092A5091092A40981E8C2
:10136000E7E7FBE0DF011D928A95E9F76AE270E0AA
:1013700086EF9AE00E948F0D8C01009709F462C1FC
:10138000CE0101967C0185E1D7011D928A95E9F78E
:10139000F801838D0E942709D82ED8015C968C9184
:1013A0000E942709F80190E020E030E04191942765
:1013B0002F5F3F4F2B313105C9F7B0E1DB9E900124
:1013C0001124282B2913C9C01AAA19AAF80181814E
:1013D0000E942709D82ED80112968C910E942709C5
:1013E000B0E1DB9E90011124D82ED22AD8AAF801B0
:1013F00083810E942709C82ED80114968C910E94DF
:101400002709B0E1CB9E90011124C82EC22ACFA695
:10141000F80185810E942709B82ED80116968C9173
:101420000E942709B0E1BB9E90011124B82EB22A78
:10143000BEA6F80187810E942709A82ED801189618
:101440008C910E942709B0E1AB9E90011124A82E37
:10145000A22AADA6F80181850E942709982ED801FD
:101460001A968C910E942709B0E19B9E900111244D
:10147000982E922A9CA6F80183850E942709882E1F
:10148000D8011C968C910E942709B0E18B9E900197
:101490001124882E822A8BA6F80186850E942709AE
:1014A000682ED8011F968C910E942709782EF8018A
:1014B00081890E942709582ED80152968C910E944A
:1014C0002709B0E15B9E90011124822B8BABF801C0
:1014D00083890E942709582ED80154968C910E9426
:1014E0002709B0E15B9E90011124822B8CABF8019F
:1014F00086890E942709582ED80157968C910E9400
:101500002709B0E15B9E90011124822B8DABF8017D
:10151000808D0E942709582ED80159968C910E94DF
:101520002709B0E15B9E90011124822B8EABE0E194
:101530006E9EA0011124472949838A829B82AC8236
:10154000BD82CE82DF82188619868DA99EA99B87CF
:101550008A878BA99CA99D878C8785E1F701DE018D
:10156000569601900D928A95E1F7DF88E88CF98C08
:101570000A8D1B8DBC8DFD8DEE8D2D2D3E2D4F2D9D
:10158000502F612F7B2F8F2F9E2FA0E00E94460CA3
:1015900009F458C00E94F8058C01009741F50E949B
:1015A000CB016DA37EA38FA398A781E089A78DB7F8
:1015B0009EB745970FB6F8949EBF0FBE8DBFADB7CF
:1015C000BEB7119685E1FE01769601900D928A953F
:1015D000E1F70E94F304BE016A5E7F4F85E00E943E
:1015E00058090FB6F894DEBF0FBECDBF2BC08E8951
:1015F000F80180838F8D98A19287818789A19AA114
:101600009487838783898F5F838B0E94CB01D80166
:101610001F96CD90DD90ED90FC9052976C197D094E
:101620008E099F09693873418105910558F0B80109
:1016300081E00E9458090E94CB01F8016787708BF6
:10164000818B928BE6960FB6F894DEBF0FBECDBFAE
:10165000DF91CF911F910F91FF90EF90DF90CF908E
:10166000BF90AF909F908F907F906F905F90089504
:101670000F931F93CF93DF93C091A209D091A30939
:101680002097B1F1CE010E9437069093A309809371
:10169000A2090E94CB010F85188929893A89601B0C
:1016A000710B820B930B603177428105910540F1FC
:1016B000BE0186E00E9458098DB79EB745970FB6C8
:1016C000F8949EBF0FBE8DBFADB7BEB7119685E132
:1016D000FE0101900D928A95E1F70E9477058DB782
:1016E0009EB745960FB6F8949EBF0FBE8DBF08C03B
:1016F00080E090E00E9437069093A3098093A209AE
:10170000DF91CF911F910F9108950F931F93CF9366
:10171000DF93CDB7DEB7E2970FB6F894DEBF0FBE0A
:10172000CDBFFC018E010F5F1F4F82E3D8011D92D8
:101730008A95E9F780858F9387818F9386818F9330
:1017400085818F9384818F9383818F9382818F93FF
:1017500081818F9384858F9383858F9382858F93E7
:1017600081858F9380811F928F9389EC90E09F9366
:101770008F931F930F930E94100EC8010E94A30421
:101780000FB6F894DEBF0FBECDBFE2960FB6F89449
:10179000DEBF0FBECDBFDF91CF911F910F91089596
:1017A0008093AD090895CF92DF92EF92FF926B0183
:1017B0007C010E94CB016C0D7D1D8E1D9F1D6093D1
:1017C000A9097093AA098093AB099093AC09FF9083
:1017D000EF90DF90CF9008950F931F930E94CB015D
:1017E0000091A9091091AA092091AB093091AC0987
:1017F000601771078207930740F068EE73E080E09E
:1018000090E00E94D30B81E001C080E01F910F9116
:101810000895569A579A84B1817084B980ED9BE0FF
:101820000E9486030E94BF010E942B020E94D904DD
:101830000E9442080E94970078942FEF89E698E171
:10184000215080409040E1F700C00000C0E40E94B9
:10185000B1080E94D7008091AD091092AD090E9495
:10186000EC0B8823A1F368EE73E080E090E00E9427
:10187000D30B8BB18C278BB9EACF2A153B054C05CE
:101880005D056E057F058007910708950024A7FD7B
:1018900000942A1730054005500560057005800545
:1018A00090050895CF93DF938230910510F482E084
:1018B00090E0E091020CF091030C20E030E0A0E019
:1018C000B0E0309739F14081518148175907B8F09D
:1018D0004817590771F482819381109729F0139664
:1018E0009C938E9312972CC09093030C8093020CC0
:1018F00027C02115310531F04217530718F0A9010F
:10190000DB0101C0EF019A01BD01DF010280F3811B
:10191000E02DD7CF21153105F9F0281B390B2430E4
:10192000310580F48A819B816115710521F0FB01ED
:101930009383828304C09093030C8093020CFE0176
:10194000329644C0FE01E20FF31F8193919322501F
:101950003109398328833AC02091000C3091010C61
:10196000232B41F420910201309103013093010CAB
:101970002093000C209100013091010121153105C7
:1019800041F42DB73EB74091040150910501241B4D
:10199000350BE091000CF091010CE217F307A0F475
:1019A0002E1B3F0B2817390778F0AC014E5F5F4FB5
:1019B0002417350748F04E0F5F1F5093010C4093DA
:1019C000000C8193919302C0E0E0F0E0CF01DF9141
:1019D000CF910895CF93DF93009709F487C0FC015E
:1019E000329713821282C091020CD091030C20977F
:1019F00081F420813181280F391F8091000C909152
:101A0000010C8217930779F5F093010CE093000C19
:101A10006DC0DE0120E030E0AE17BF0750F4129633
:101A20004D915C9113979D014115510509F1DA0122
:101A3000F3CFB383A28340815181840F951F8A170E
:101A40009B0771F48D919C911197840F951F0296BD
:101A50009183808312968D919C91139793838283B7
:101A60002115310529F4F093030CE093020C3EC0DC
:101A7000D9011396FC93EE9312974D915D91A40FAB
:101A8000B51FEA17FB0779F480819181840F951FB8
:101A90000296D90111969C938E938281938113961D
:101AA0009C938E931297E0E0F0E08A819B810097EF
:101AB00019F0FE01EC01F9CFCE010296288139819F
:101AC000820F931F2091000C3091010C28173907C9
:101AD00069F4309729F41092030C1092020C02C0A2
:101AE00013821282D093010CC093000CDF91CF912E
:101AF0000895FB01DC0104C08D910190801921F44F
:101B000041505040C8F7881B990B0895FB01DC0138
:101B100002C001900D9241505040D8F70895FC0149
:101B20008191861721F08823D9F799270895319755
:101B3000CF010895FB01DC0101900D920020E1F737
:101B400008950F931F93CF93DF93EC018B010097C0
:101B500031F46115710519F480E090E038C06EE051
:101B600070E081E090E00E945F10FC010097A1F31B
:101B700080E883830115110571F01387028781E8DE
:101B800083838091040C9091050C892B21F4F093B0
:101B9000050CE093040C2097C9F0D187C08783819E
:101BA000826083838091060C9091070C892B71F4DD
:101BB000F093070CE093060C8091080C9091090CAF
:101BC000892B21F4F093090CE093080CCF01DF91ED
:101BD000CF911F910F9108950F931F93CF93DF9390
:101BE000CDB7DEB7FE0137966191719106E01CE03A
:101BF000D8018D919C91DC0113962C91139728604C
:101C000013962C93AF010E944E0ED801ED91FC91DA
:101C10002381277F2383DF91CF911F910F91089517
:101C20000F931F93CF93DF93CDB7DEB72E970FB6E9
:101C3000F894DEBF0FBECDBF0D891E898EE08C8368
:101C40001A8309838FEF9FE79E838D83AE01475EE2
:101C50005F4F6F89788DCE0101960E944E0EEF8105
:101C6000F885E00FF11F10822E960FB6F894DEBFB4
:101C70000FBECDBFDF91CF911F910F910895CF93EC
:101C8000DF93EC018B8188608B83CE010E944E0E26
:101C90002B81277F2B83DF91CF9108952F923F9245
:101CA0004F925F926F927F928F929F92AF92BF926C
:101CB000CF92DF92EF92FF920F931F93CF93DF9318
:101CC000CDB7DEB72C970FB6F894DEBF0FBECDBFF1
:101CD0007C016B018A01FC0117821682838181FFDE
:101CE000BDC1CE0101964C01F7019381F60193FD30
:101CF000859193FF81916F01882309F4ABC18532EF
:101D000039F493FD859193FF81916F01853229F418
:101D1000B70190E00E949810E7CF512C312C20E0C1
:101D20002032A0F48B3269F030F4803259F08332E3
:101D300069F420612CC08D3239F0803339F4216090
:101D400026C02260246023C0286021C027FD27C050
:101D500030ED380F3A3078F426FF06C0FAE05F9E87
:101D6000300D1124532E13C08AE0389E300D1124FB
:101D7000332E20620CC08E3221F426FD6BC120640C
:101D800006C08C3611F4206802C0883641F4F60192
:101D900093FD859193FF81916F018111C1CF982FA0
:101DA0009F7D9554933028F40C5F1F4FFFE3F98318
:101DB0000DC0833631F0833771F0833509F05BC095
:101DC00022C0F801808189830E5F1F4F4424439411
:101DD000512C540115C03801F2E06F0E711CF8014E
:101DE000A080B18026FF03C0652D70E002C06FEFB8
:101DF0007FEFC5012C870E948D102C0183012C855B
:101E00002F77222E17C03801F2E06F0E711CF801F7
:101E1000A080B18026FF03C0652D70E002C06FEF87
:101E20007FEFC5012C870E947B102C012C85206838
:101E3000222E830123FC1BC0832D90E048165906F7
:101E4000B0F4B70180E290E00E9498103A94F4CF89
:101E5000F50127FC859127FE81915F01B70190E094
:101E60000E94981031103A94F1E04F1A5108411431
:101E7000510471F7E5C0843611F0893639F5F8015F
:101E800027FF07C060817181828193810C5F1F4FA2
:101E900008C060817181882777FD8095982F0E5F3B
:101EA0001F4F2F76B22E97FF09C0909580957095A1
:101EB00061957F4F8F4F9F4F2068B22E2AE030E010
:101EC000A4010E94CA10A82EA81844C0853729F47E
:101ED0002F7EB22E2AE030E025C0F22FF97FBF2EF0
:101EE0008F36C1F018F4883579F0B4C0803719F016
:101EF000883721F0AFC02F2F2061B22EB4FE0DC065
:101F00008B2D8460B82E09C024FF0AC09F2F9660D5
:101F1000B92E06C028E030E005C020E130E002C064
:101F200020E132E0F801B7FE07C060817181828153
:101F300093810C5F1F4F06C06081718180E090E04B
:101F40000E5F1F4FA4010E94CA10A82EA818FB2DD7
:101F5000FF77BF2EB6FE0BC02B2D2E7FA51450F49D
:101F6000B4FE0AC0B2FC08C02B2D2E7E05C07A2C10
:101F70002B2D03C07A2C01C0752C24FF0DC0FE014F
:101F8000EA0DF11D8081803311F4297E09C022FF02
:101F900006C07394739404C0822F867809F07394FA
:101FA00023FD13C020FF06C05A2C731418F4530CE1
:101FB0005718732C731468F4B70180E290E02C87F3
:101FC0000E94981073942C85F5CF731410F4371871
:101FD00001C0312C24FF12C0B70180E390E02C87B0
:101FE0000E9498102C8522FF17C021FF03C088E5AE
:101FF00090E002C088E790E0B7010CC0822F86789D
:1020000059F021FD02C080E201C08BE227FD8DE284
:10201000B70190E00E949810A51438F4B70180E34E
:1020200090E00E9498105A94F7CFAA94F401EA0D18
:10203000F11D8081B70190E00E949810A110F5CFAA
:10204000332009F451CEB70180E290E00E9498104D
:102050003A94F6CFF7018681978102C08FEF9FEF08
:102060002C960FB6F894DEBF0FBECDBFDF91CF9197
:102070001F910F91FF90EF90DF90CF90BF90AF90A6
:102080009F908F907F906F905F904F903F902F9098
:102090000895F999FECF92BD81BDF89A992780B530
:1020A0000895262FF999FECF1FBA92BD81BD20BD9C
:1020B0000FB6F894FA9AF99A0FBE019608950F9305
:1020C0001F93CF93DF93869F8001879F100D969F6C
:1020D000100D1124C8010E94520CEC01009729F048
:1020E000A80160E070E00E948610CE01DF91CF91E0
:1020F0001F910F910895FC010590615070400110EF
:10210000D8F7809590958E0F9F1F0895DC0101C030
:102110006D9341505040E0F70895FC0161507040CC
:1021200001900110D8F7809590958E0F9F1F08950C
:102130000F931F93CF93DF93182F092FEB018B8100
:1021400081FD03C08FEF9FEF20C082FF10C04E8142
:102150005F812C813D81421753077CF4E881F9812E
:102160009F012F5F3F4F39832883108306C0E88586
:10217000F985812F0995892B29F72E813F812F5FC2
:102180003F4F3F832E83812F902FDF91CF911F915F
:102190000F910895FA01AA27283051F1203181F1D9
:1021A000E8946F936E7F6E5F7F4F8F4F9F4FAF4F5F
:1021B000B1E03ED0B4E03CD0670F781F891F9A1F72
:1021C000A11D680F791F8A1F911DA11D6A0F711D26
:1021D000811D911DA11D20D009F468943F912AE032
:1021E000269F11243019305D3193DEF6CF0108951A
:1021F000462F4770405D4193B3E00FD0C9F7F6CF4B
:10220000462F4F70405D4A3318F0495D31FD405212
:10221000419302D0A9F7EACFB4E0A69597958795A8
:1022200077956795BA95C9F7009761057105089587
:102230009B01AC010A2E0694579547953795279533
:10224000BA95C9F7620F731F841F951FA01D0895CB
:04225000F894FFCF30
:1022540000000A0C20003031323334353637383937
:102264006162636465660030313233343536373841
:082274003961626364656600D4
:00000001FF
